:100000000C94B6040C94EE040C94EE040C94EE04E0
:100010000C94EE040C94EE040C94EE040C94EE0498
:100020000C94EE040C94EE040C94372D0C94F32CE9
:100030000C94342E0C94EE040C94EE040C94EE0408
:100040000C94EE040C94EE040C94EE040C94EE0468
:100050000C94EE040C94102E0C94EE040C94EE040C
:100060000C94EE040C94EE040C94EE040C94EE0448
:100070000C94EE040C94EE040C94EE040C94EE0438
:100080000C94EE040C94EE040C94EE040C94EE0428
:100090000C94EE040C94EE040C94EE040C94EE0418
:1000A0000C94EE040C94EE040C94EE040501090289
:1000B000A10185020901A100050919012905150001
:1000C00025019505750181029501750381010501E1
:1000D000093009311581257F950275088106093897
:1000E0001581257F950175088106050C0A380215D2
:1000F00081257F950175088106C0C005010980A191
:1001000001850319012AB700150126B7009501756D
:10011000108100C0050C0901A101850419012AA064
:1001200002150126A002950175108100C00660FF2E
:100130000961A1010962150026FF0095207508815B
:10014000020963150026FF00952075089102C0057D
:10015000010906A101050719E029E7150025019508
:1001600008750181029501750881010507190029AB
:10017000FF150026FF009506750881000508190186
:100180002905950575019102950175039101C0003E
:10019000000000000000000000000000000000005F
:1001A000000000000000000000000000000000004F
:1001B0000000007E0F00D4FFFFFFC70000007800A2
:1001C000000000000000002A2B28000000000000B2
:1001D0000000000000000000000029000000002CCA
:1001E0001E3420212224342627252E362D37382769
:1001F0001E1F202122232425263333362E37381F75
:100200000405060708090A0B0C0D0E0F1011121336
:100210001415161718191A1B1C1D2F3130232D35D4
:100220000405060708090A0B0C0D0E0F1011121316
:100230001415161718191A1B1C1D2F3130354C6454
:100240003214783C1EFD377A585A000004E6D6B4C2
:10025000460200210116000000742FE5A3E009CB3F
:1002600002305D003D8889C65436C3174FE4E2A7CB
:100270003DAC73831FB1E521EA73C5596CF951C8D0
:10028000925CE0C5B726F35756C948B21384F8BC50
:10029000892941DA845EFABA7397F7A0A8986F3E6D
:1002A000D4C24301AB849A7684D1523A4EBCE24424
:1002B000193FBEABB36E0AEA7A7961EFDF5AF753A2
:1002C000EECF5A567F4C3E9BAC29320504C54308FD
:1002D00073C427B4E555C646224A7FF747801758AE
:1002E0003CF03F309685665B5D93843D09AFFE250B
:1002F000E747A71E95A5FD8CF6AAEBCFBCD96ADD12
:10030000695352DA52697097298F44442C75C6E7B5
:100310000C2C1D4CE30EB41D0005CEEDB9B586C7FF
:10032000345F58AC7C55A418319183FCBFAC76ED9A
:10033000DFCBA016E110D303D05769461D410E1D37
:10034000D17E9E8B533F7D9AE777FB4B72545E7B49
:10035000FB0F44E1F0EBF4D425D34ABF9169DA975F
:10036000FC32E8E2041DBE3FD669B958D7FA52C73D
:10037000DDFDB5D151E4F6E722A62D0C7F9C72D8A5
:1003800031165737387B48674B237E208959B0AEEA
:10039000624875DD231073BDC072DCE3CC33581D99
:1003A000D213A95391D593D6223A59893515E4979A
:1003B0000A47AFBBEE198B0E85A24FE15A26313E9C
:1003C000E230AC4661566974966418A9391E6774A8
:1003D0002AE64F32854A67B9E3FF6104CC706E4E5E
:1003E0006BFACAB3AE0E1B6236B6D4DFEC7393E67B
:1003F000F91C5496810077F0FEFD52A75994D9FB61
:1004000010A5A747B59CD24B78E81AF6156F9293C2
:10041000861D7C414CC80925F5921AC08C52782B58
:100420005EAE716CFC640217D7D19F947CCED6115E
:10043000904FC13ED7677C98FD21118B15E900EBE9
:100440006298166ADA2BF10D1122E59CBFE17FDB81
:10045000A2945BB7DA9C4A4C80E92CD90613A88099
:100460004525585B17290C8D37981B72318CEE3F50
:10047000C2334A74052887865211E5F61DE1FAA6B3
:10048000A33525B8A8F7EC3E57C12ED6BCDBD084E7
:100490008A35449B00B72E7F697D0A40410001CC1C
:1004A00004CC13000045E00472B1C467FB020000F5
:1004B000000004595A00010101010101010101027A
:1004C0000202020202020202030303030303030304
:1004D00004040404040404050505050506060606CF
:1004E00006070707070708080808090909090A0A8B
:1004F0000A0B0B0B0C0C0C0D0D0D0E0E0E0F0F0F2F
:1005000010101111111212131314141515161617B9
:1005100017181819191A1A1B1B1C1D1D1E1E1F2027
:1005200020212222232424252626272829292A2B74
:100530002C2D2D2E2F303132323334353637383999
:100540003A3B3C3D3E3F4041424344454647484993
:100550004A4C4D4E4F50515354555658595A5B5D65
:100560005E5F616264656668696B6C6D6F70727303
:100570007577787A7B7D7E8082838587888A8C8E6A
:100580008F91939596989A9C9EA0A2A3A5A7A9AB9C
:10059000ADAFB1B3B5B7BABCBEC0C2C4C6C9CBCD8E
:1005A000CFD1D4D6D8DBDDDFE2E4E7E9EBEEF0F340
:1005B000F5F8FAFDFFFFAA7F554001000100010098
:1005C0000100010001000100010001000100010023
:1005D0000100010001000100010001000100010013
:1005E0000100010001000100010001000100010003
:1005F00001000100010001000100010001000100F3
:1006000001000100010001000100010000000100E3
:1006100000000100010001000100010001000100D3
:1006200001000100010000000000000000000000C7
:1006300000000100010001000100010001000100B3
:1006400001000100010001000100010001000100A2
:100650000100010001000100010001000100010092
:100660000100010001000100010001000100010082
:100670000100010001000100010001000100010072
:100680000100010000000100000001000100010064
:100690000100010001000100010001000100000053
:1006A0000000000000000000000001000100010047
:1006B0000100010001000100010001000100010032
:1006C0000100010001000100010001000100010022
:1006D0000100010001000100010001000100010012
:1006E0000100010001000100010001000100010002
:1006F00001000100010001000100010000000100F3
:1007000000000100010001000100010001000100E2
:1007100001000100010000000000000000000000D6
:1007200000000100010001000100010001000100C2
:1007300001000100010001000100010001000100B1
:1007400001000100010001000100010001000100A1
:100750000100010001000100010001000100010091
:100760000100010001000100010001000100010081
:100770000100010000000100000001000100010073
:100780000100010001000100010001000100000062
:100790000000000000000000000001000100010056
:1007A0000100010001000100010001000100010041
:1007B0000100010001000100010001000100010031
:1007C0000100010001000100010001000100010021
:1007D0000100010001000100010001000100010011
:1007E0000100010001000100010001000000010002
:1007F00000000100010001000100010001000100F2
:1008000001000100010000000000000000000000E5
:10081000000001000100D303000002000200CF032A
:10082000000003000100D403000004000200B9032B
:100830005A0705000100D503000006000200BB03B3
:10084000000007000200D103000008000100D603E9
:10085000000009000200BD0335070A000200BF03C3
:1008600035070B000200C10335070C000200C3036B
:1008700035070D000200C50335070E000200C7034F
:1008800035070F000200C903350710000200CB0333
:10089000350711000200CD03350712000200D7030F
:1008A000000013000200D903000009025B000301ED
:1008B00000A0FA090400000103010100092111014F
:1008C000000122400007058103080001090401001E
:1008D0000203000000092111010001222200070586
:1008E0008203200001070503032000010904020020
:1008F0000103000000092111010001228100070508
:1009000084032000011201000200000008444B7221
:100910004D0100010203011C037600690061006CB7
:10092000003A006600360034006300320062003393
:10093000006300000012034D006F006E006F007234
:1009400000610069006C0000001C034B006900732B
:1009500000650072002000440065007300690067B4
:10096000006E0073000000040309040011241FBE80
:10097000CFEFDAE0DEBFCDBF04B603FE18C0809132
:100980005F0490916004A0916104B091620487308B
:10099000904BA740B04B59F410925F041092600442
:1009A0001092610410926204E0E0F8E3099511E00E
:1009B000A0E0B1E0E4E3FEE602C005900D92A639A6
:1009C000B107D9F724E0A6E9B1E001C01D92AF3527
:1009D000B207E1F70E945B2E0C94F4360C940000F1
:1009E000E8EDF0E080818E7F80831092E20010922B
:1009F000DA001092E100A0EEB0E08C9181608C935F
:100A000080818F77808319BCA7EDB0E08C918E7FB9
:100A10008C9380818F7E808310924604089520916C
:100A2000E4003091E50095E6A9012091EC00822FC9
:100A3000817020FF06C08091E80080FF06C080E042
:100A400008952091E80022FD1AC080915304882364
:100A500089F0853089F08091EB0085FD0FC02091F1
:100A6000E4003091E50042175307F9F29150E1F6A6
:100A700084E0089582E0089583E0089581E0089578
:100A8000EF92FF920F931F93CF937C018B010E94F3
:100A90000F05C82F811117C08091E80085FD0BC09C
:100AA0008091E8008E778093E8000E940F058823EC
:100AB00099F3C82F08C0F70181917F018093F1005D
:100AC0000150110949F78C2FCF911F910F91FF9081
:100AD000EF9008958091550487FF13C08091E8003E
:100AE00082FF06C08091E8008B778093E80004C005
:100AF000809153048111F2CF08958091530488238B
:100B0000D9F38091E80080FFF8CF8091E8008E77DC
:100B1000ECCF982F9093E900242F762F50E089177F
:100B200031F07091EC002091ED005091F00021FD2A
:100B300007C09F5F973071F78093E90081E00895C7
:100B40003091EB003E7F3093EB003091ED003D7F24
:100B50003093ED003091EB0031603093EB007093F7
:100B6000EC002093ED005093F0002091EE0027FD63
:100B7000E0CF80E00895CF92DF92EF92FF920F9343
:100B80001F93CF93DF93C8EDD0E088818F7E888359
:100B9000E7EDF0E080818160808384E082BF81E0C6
:100BA0008093460488818E7F888302EE10E0F801EE
:100BB00010821092DA0081EEC82ED12CF60110823C
:100BC00088818F77888388818068888388818F7DFA
:100BD000888319BC1092530410925404109252044A
:100BE0001092510490EEE92EF12CF70180818B7F59
:100BF000808388818160888342E060E080E00E9499
:100C00008905F60180818E7F8083F8018081816073
:100C10008083808188608083F70180818E7F8083DC
:100C2000888180618883DF91CF911F910F91FF9020
:100C3000EF90DF90CF900895FC0180915B0490913C
:100C40005C0486179707A0F06115710529F490914F
:100C5000E8009E779093E80090E06115710551F4EB
:100C6000911108C08091E80082FF34C080E00895AF
:100C7000BC01F2CF809153048823C1F18530C1F1CA
:100C80008091E80083FD30C08091E80082FDEACFCA
:100C90008091E80080FFE1CF8091F3002091F20085
:100CA000382F6115710519F02830310558F091E0A1
:100CB0002830310509F090E02091E8002E7720934C
:100CC000E800CBCF81918093F100615071092F5FD3
:100CD0003F4FE7CF80915304882341F0853041F0A6
:100CE0008091E80083FFBECF81E0089582E00895FF
:100CF00083E0089508958091480408959C014FB7BA
:100D0000F89480913F0490914004A0914104B091E7
:100D100042044FBF821B930B08952FB7F894809124
:100D20003F0490914004A0914104B09142042FBF30
:100D300008959C01FC0132969FEF80E04191461797
:100D400051F09F3F19F4411101C0982F8F5F8630F9
:100D5000A9F79F3F09F40895290F311D97FD3A9592
:100D6000F9016283089520913C0430913D042817D5
:100D7000390771F090933D0480933C04E0913A046C
:100D8000F0913B04309721F00084F185E02D099427
:100D9000089520913804309139042817390771F0EB
:100DA0009093390480933804E0913A04F0913B0425
:100DB000309721F00680F781E02D09940895E091A5
:100DC0003A04F0913B04309721F00190F081E02D3E
:100DD000099480E00895452B39F0682381E06F3F46
:100DE00009F080E08170089581E0FCCFDC01609122
:100DF000B5038091B603962F891301C00895292F5A
:100E000030E0F901EE0FFF1FE355FC4F40815181A7
:100E10004A175B07A1F487E08A9FA0018B9F500DC2
:100E200011244B585C4F81E0FA0184839613E6CF7E
:100E30002F5F3F4F237033272093B50308952F5F13
:100E40003F4F922F9370D8CF10921203109211033C
:100E5000E5E7F3E08581811102C01482168237969E
:100E600083E0ED3AF807B1F70895E9EBF3E0848108
:100E700095812AE030E0B9010E942C36609322016E
:100E800086818093210182858093200184858093CF
:100E90001F0186859785B9010E942C3660931E013B
:100EA000808980931D01828980931C0184898093AD
:100EB0001B0108958091B9039091BA039093240186
:100EC000809323010895FA01811101C0FB01099467
:100ED000089580918502982F9E7F29F48170826009
:100EE0008093850208958A32E8F381708862F8CF92
:100EF000AF92BF92DF92EF92FF920F931F93CF9327
:100F0000DF93082F162FE901E42FF0E0EB54FB4F9D
:100F1000611110C0E4915E2F4E2F4983E8835A83FC
:100F2000DF91CF911F910F91FF90EF90DF90BF90D5
:100F3000AF900895E62EF12C4491D42EE42FF0E0EA
:100F400026E0829FC00111242FEF30E0B9010E94FA
:100F50002C36802F90E0880F991F55E5569FD001C1
:100F6000579FB00D11248A1B9B0B982F990F890F47
:100F70005901AE18BF08AE9ED001AF9EB00DBE9E07
:100F8000B00D11245B2F189F80011124012F112710
:100F90005901A01AB10AAE9E8001AF9E100DBE9EEF
:100FA000100D11245901A81AB108AE9CC001AF9CC4
:100FB000900DBE9C900D1124892F9927281B390B69
:100FC0002E9FC0012F9F900D3E9F900D1124E92F61
:100FD00062307105A1F050F46115710509F49DCFDF
:100FE0006130710581F0EB2F512F97CF643071057F
:100FF00069F080F06630710509F48FCFF4CFE42FEB
:101000004B2F592F8ACFE42F412F87CFEB2F542F0F
:10101000492F83CF4B2F5D2DE12F7FCF0E948D066F
:101020009C019091550280915602982B21F03093AB
:101030005202209351029091570280915802982BAE
:1010400021F03093500220934F02E0913A04F09146
:101050003B04309749F082E0809353020480F5818D
:10106000E02D83E592E00994089590915502803F28
:1010700059F48091560287FF0DC0109256029111CB
:101080000BC010924D0208C0813F81F4809156023E
:1010900018169CF3992381F0809157029091580281
:1010A000892B09F064C010924C020895823F49F4E4
:1010B00097FFF0CF10925502809156028111ECCF2C
:1010C000E0CF833F19F41916ACF3E4CF2091570217
:1010D000893F29F41216F4F610925702DBCF8A3FAB
:1010E00019F427FFD7CFF8CF209158028B3F29F46E
:1010F00027FFD0CF10925802CDCF8C3F19F4121693
:10110000CCF3C8CF843F31F4809154028E7F80931A
:101110005402C0CF853F21F4809154028D7FF7CFD8
:10112000863F21F4809154028B7FF1CF873F21F4D9
:1011300080915402877FEBCF883F21F48091540245
:101140008F7EE5CF8D3F31F480914E028E7F80936C
:101150004E02A0CF8E3F21F480914E028D7FF7CFBB
:101160008F3F09F097CF80914E028B7FF0CF08958B
:1011700080914E0280FF0CC060911C0170E075955B
:101180006795759567956115710549F1862F0895E5
:1011900081FF06C060911C0170E075956795F3CFE3
:1011A00060911C0182FD0BC090914C029923A1F02B
:1011B00060911B0180911C01961738F0682F70E038
:1011C0006038710500F38FE70895899FC0011124ED
:1011D00070E00E944036F4CF61E070E0D7CF81E04C
:1011E000089580914E026091C1037091C20380FF07
:1011F00016C020912001269FC001279F900D112429
:10120000BC0176956795769567956038710508F00D
:1012100043C06115710509F441C0862F089581FF0F
:101220000BC020912001269FC001279F900D112403
:10123000BC0176956795E9CF82FF09C080912001B6
:101240009B01829FB001839F700D1124DECF2091FE
:101250004D022223D1F290911F0180912001482F4D
:1012600050E0291748F0CB01849FB001859F700D95
:10127000949F700D1124C9CF289F90011124269F9F
:10128000A001279F500D369F500D1124692F70E04B
:10129000CA010E942C36B9CF8FE7089581E00895E6
:1012A000803F31F40E94F1088195809356020895A1
:1012B000813F19F40E94F108F8CF823F31F40E9477
:1012C000F1088195809355020895833F19F40E9497
:1012D000F108F8CF893F29F40E94B808809357029B
:1012E00008958A3F21F40E94B8088195F7CF8B3F7B
:1012F00031F40E94B80881958093580208958C3F7C
:1013000019F40E94B808F8CF843F31F48091540258
:101310008160809354020895853F21F480915402A6
:101320008260F7CF863F21F4809154028460F1CF30
:10133000873F21F4809154028860EBCF883F21F4ED
:10134000809154028061E5CF8D3F31F480914E024F
:10135000816080934E0208958E3F21F480914E0269
:101360008260F7CF8F3FB9F780914E028460F1CF52
:1013700080E00895F894E82FE295EF70F0E031A155
:10138000282F2F7081E090E001C0880F2A95EAF79E
:10139000982F9095932391A392A1892B82A378945F
:1013A00008959091250292FF06C0282F28712830B9
:1013B000F9F4877F846093FF06C0282F28712831B5
:1013C000F1F4877E84612091260220FF06C0382F29
:1013D00038713830D9F4877F816021FF06C0282F0B
:1013E00028712831D1F4877E816194FD877E08952C
:1013F000282F24712430F9F68B7F8860DCCF282FCA
:101400002471243101F78B7E8861DDCF382F317153
:10141000313019F78E7F8860E0CF282F217121317C
:1014200021F78E7E8861E1CFCF93DF93EC01823884
:101430009105A9F1D8F58133910509F496C048F5D5
:101440008932910509F48AC08A9709F495C0C115BB
:1014500021E5D20708F0BCC0C11530E5D30708F07C
:1014600014C1C83ED10508F09CC0C03ED10560F54E
:10147000C83AD10508F087C0C53AD10508F0FDC0CB
:10148000C130D10509F12097F9F0C430D105E0F45D
:1014900040C08533910509F45AC0C997C1F68091BF
:1014A0002502837089F0C0EED0E00EC0833E910526
:1014B00099F170F4803E910501F1823E910539F673
:1014C0008091250282FD21C0CE01DF91CF91089548
:1014D000863E910561F1873E910571F1843E91054B
:1014E00009F0B5CF8091260281FFEECF80912502D1
:1014F000C7EED0E084FD0DC0E7CF8091250280FDCE
:1015000012C19091260290FFDFCFC3EED0E084FF9E
:10151000DBCFD0E0C0E0D8CF8091250282FD06C1AC
:101520009091260290FDBFCF84FFCECFF2CF809165
:10153000250283FDDDCFC8CF8091250283FDF9C050
:101540009091260291FFF0CFC4EED0E0BDCF809104
:10155000250285FFB9CFC9E2D0E0B6CF8091250240
:1015600085FFB2CFC5E3D0E0AFCF8091250286FFE3
:10157000ABCFCAE2D0E0A8CF8091250286FFA4CFEE
:10158000C1E3D0E0A1CFCF3BD10518F6C85AD0E0D7
:10159000CC0FDD1FCD5CDE4F0990D881C02DD46407
:1015A00093CFC11540E2D40758F4C11581E0D807A4
:1015B00008F08ACFC03FD10508F4ABCFD06584CF07
:1015C000C11590E4D90708F4A4CFDF70D06A7CCFAE
:1015D000C11525E5D20700F5C11534E5D30708F09C
:1015E0008AC0C11543E5D40708F071C0C11582E572
:1015F000D80708F467C0CE018370992721E030E056
:1016000002C0220F331F8A95E2F7C695C69580E285
:10161000C89FE001112452C0C11599E5D907A8F46B
:10162000C11528E5D20708F06BC0C11536E5D30710
:1016300008F06FCF8C2F0E94D109C82FD0E0DC2F8B
:10164000CC27CC27DF71D0623FCFC1154AE5D40744
:1016500008F45BC0CE0190568115904208F059CF36
:101660008D2F8F710E94D10990E0982F88278827AD
:101670009F719C012C2BE901E6CFC55AD0E0C05DDB
:10168000DE4FC881D0E0D0641FCFCE01E4E0969554
:101690008795EA95E1F783702C2F26952695237080
:1016A00040E2249F90011124382B8C2F8370C1E0DD
:1016B000D0E002C0CC0FDD1F8A95E2F7C22BD32BFE
:1016C000DC6802CFDC2FCC27C16FD06AFDCECE0103
:1016D0008370992721E030E002C0220F331F8A95E2
:1016E000E2F7C695C69590E2C99FE0011124C22B8E
:1016F000D32BDA68E9CEDC2FCC27C46FD06AE4CED6
:10170000DC2FCC27C06FD06ADFCE8C2F8F700E9469
:10171000D10934E0D695C7953A95E1F7CF709C2F63
:10172000EC01D069D1CEC9E3D0E0CECEC2EED0E09C
:10173000CBCEC6EED0E0C8CE80911602882331F021
:101740001092160210921502109214020895CF936F
:10175000C82F8091260282FD0CC0809116028C1742
:1017600041F00E948D069093150280931402C0935D
:101770001602CF910895809590915E0498239093DE
:101780005E04089580959091EC0298239093EC026A
:1017900008959091EC02892B8093EC0208951092A9
:1017A0000B0210920A021092090208958091BB0365
:1017B0009091BC03892B89F00E948D062091140220
:1017C00030911502AC01421B530B81E02091BB0309
:1017D0003091BC034217530708F480E081700895EC
:1017E0008091080281111092080208952091070249
:1017F0009091C601291302C080E0089530E0F901FC
:1018000053E0EE0FFF1F5A95E1F7E953FE4F518168
:10181000561306C05081581303C05281541304C09C
:101820002F5F3F4F2770E6CF81E008958091070238
:101830009091C601981301C008958F5F8770FACF09
:101840009E3F49F1E82F2CE0929FE00D11249E2F3E
:101850009770E695E695E69583E0E89FF001112400
:10186000EA55FE4F50E040E080E0219130E0092E43
:1018700002C0369527950A94E2F721703327042E8B
:1018800001C0220F0A94EAF7822B4F5F5F4F43306B
:10189000510559F7089580E008959E3F69F1E82FBA
:1018A0002CE0929FE00D11248E2F877041E001C043
:1018B000440F8A95EAF7E695E695E69583E0E89F7A
:1018C000F0011124EA55FE4F30E020E070E0519124
:1018D000DF011197CB01022E02C0969587950A94DD
:1018E000E2F7817081958527842385278C932F5F6C
:1018F0003F4F2330310559F7089592959F709630E8
:1019000091F058F4925F9F70923058F4803F19F034
:1019100030F4883E30F481E008959A5FF4CF843F3C
:10192000D1F380E00895883EB0F3813FD1F7F3CF43
:1019300081FD02C08C9A08958C980895982F9295F5
:101940009F7011F0892F94E0282F2695269511F08D
:101950009E5F822F869509F09F5F892F08959C01D5
:101960003A9521153F4150F5FC01EE27F170BC017D
:1019700066277270AC01442754709C01222738708E
:1019800094FF0EC080E1EF2B09F480E0672B09F093
:101990008062452B09F08064232B89F080680895CC
:1019A00081E0EF2B09F480E0672B09F08260452B82
:1019B00009F08460232B19F08860089580E0089571
:1019C000CF93C82F0E949E0C823039F0833051F0A3
:1019D000813051F4889A899802C08898899A8C2F0E
:1019E000CF910895889AFACF8898F5CF80934304D1
:1019F0007093450460934404809153048430F9F457
:101A00008093E9008FEF9091E800815095FD06C02A
:101A100095ED9A95F1F700008111F5CF8091E800DE
:101A200085FF0DC050E040E063E070E083E494E0A7
:101A30000E9440058091E8008E778093E800089529
:101A4000BC0184E00C94F60CBC0183E00C94F60C11
:101A50009C0184E08093E9009FEF8091E800915021
:101A600085FD06C085ED8A95F1F700009111F5CF4F
:101A70008091E80085FF0CC050E040E066E070E037
:101A8000C9010E9440058091E8008E778093E800AC
:101A90000895CF93DF93EC0181E08093E9008FEF0D
:101AA0009091E800815095FD06C095ED9A95F1F76B
:101AB00000008111F5CF8091E80085FF14C050E04F
:101AC00040E068E070E0CE010E9440058091E800AF
:101AD0008E778093E80088E0FE01A9E4B4E00190ED
:101AE0000D928A95E1F7DF91CF91089581E080937F
:101AF000E00080E28093D8001092C9008FE19EE45C
:101B00000197F1F700C0000087E090EBDC018093C3
:101B10005F0490936004A0936104B093620488E131
:101B20009CE00FB6F894A895809360000FBE909348
:101B30006000FFCF019708F40895EFE9FFE03197C7
:101B4000F1F700C00000F6CF8091850280FD0AC049
:101B5000E1E6F2E0118210821282339652E0E5381B
:101B6000F507C1F7209A35B13E7F25B121604FB707
:101B7000F89481E692E0FC015191CF0168E025B92B
:101B8000000000C057FF35B9550F000000C000C06D
:101B900000C035B900C06A9591F7F2E085389F071B
:101BA00051F74FBF8FE594E00197F1F700C00000B7
:101BB0000895EF92FF921F93CF93DF93EC0181E69C
:101BC000E82E82E0F82E10E08C8197014091880287
:101BD00060918702810F0E9478071B5E83E0E80E08
:101BE000F11C1C3F89F70E94A40D9A818C8190FF03
:101BF00008C08F5F8C83DF91CF911F91FF90EF9092
:101C000008958150F7CF9091850290FF0CC0E1E6D6
:101C1000F2E0818360834283339692E0E538F907EE
:101C2000C1F70C94A40D08950F931F93CF93DF93E6
:101C300000D00F92CDB7DEB78C018091850280FF76
:101C400010C09E012F5F3F4F409188026091870234
:101C5000F80184810E9478074B8169818A810E9402
:101C6000030EF80184818F5F84830F900F900F9093
:101C7000DF91CF911F910F9108950F931F93CF93F1
:101C8000DF9309EB13E0CFE7D2E0CE010E94A43648
:101C9000F80181938F012196C13AF2E0DF07A9F79D
:101CA000C8E1D8E0FE0185919491009711F0FC0104
:101CB00009952896F8E0C03BDF07A1F7DF91CF91A7
:101CC0001F910F9108950F931F93CF93DF9385304A
:101CD00030F5653020F54C3010F5C42FD0E0CC0F36
:101CE000DD1F28E1629FC00DD11D112438E7839FBD
:101CF000C00DD11D1124CE0187960E94A436082F55
:101D000010E0102F0027CE0188960E94A43698017B
:101D1000282BC901DF91CF911F910F91089590E079
:101D200080E0F8CF462F2091EA023091EB02232B7E
:101D300091F47E3F39F46E3F71F48091E802909106
:101D4000E9020895853038F4753028F46C3018F4C1
:101D5000672F0C94630E90E080E00895CF92DF929D
:101D6000FF920F931F93CF93DF936C0100915D045B
:101D700080911702082BC7E0D0E010E0FC2EC801CC
:101D80000C2E02C0959587950A94E2F780FD0CC051
:101D90002197A0F7F12C8F2DDF91CF911F910F91FB
:101DA000FF90DF90CF900895B6018C2F0E94920E85
:101DB0000E94140A019761F3EECFCF93DF93EC01F9
:101DC0000E94AE0EBE010E94920EDF91CF910C9444
:101DD000140AFC0186819781009721F00E94140A61
:101DE0000C947D0C808191810E94DD0EF9CF1F93B0
:101DF000CF93DF9300D000D00F92CDB7DEB74983E9
:101E00005A8389819A816623B9F02223A9F00E941E
:101E1000AE0E182F682F89819A810E944D0C69811E
:101E20007A81812F0F900F900F900F900F90DF917C
:101E3000CF911F910C94920E0E94200C182FEFCF7F
:101E4000FC01262F86819781009739F440815181CA
:101E50006281738184810C94F70E089583E290E08F
:101E60000E94A4368C3089F484E290E00E94A4366B
:101E70008F3F59F485E290E00E94A43691E08834C7
:101E800009F090E0892F8170089580E0FCCFCF9316
:101E900084E090E00E94A436C82F82E290E00E9485
:101EA000A436982F8C2FCF9108950F931F93CF9323
:101EB000DF9309EB13E0CFE7D2E0CE010E94A43616
:101EC000F80161918F01681719F0CE010E94B836B0
:101ED0002196C13AF2E0DF0781F7DF91CF911F91A0
:101EE0000F910895E9EBF3E0128E138E8FEA90E0E4
:101EF0009183808385E0848F88E893E19383828354
:101F00008AE090E09583848324E130E03783268360
:101F100048E050E051874087938782872EE130E088
:101F2000358724879787868720E530E0318B208BA3
:101F3000538B428B48E250E0558B448B42E350E098
:101F4000578B468B48EC50E0518F408F158E978F02
:101F5000868F31A320A30E94550F0C943D0ECF9382
:101F6000DF93C9E1D3E060E0CE010E94B83621964C
:101F7000C11584E0D807B9F7DF91CF9108950F9389
:101F80001F93CF93DF938901853048F5653038F58D
:101F90004C3028F521153C4531F420911901309140
:101FA0001A01232BE1F0C42FD0E0CC0FDD1F98E104
:101FB000699FC00DD11D112498E7899FC00DD11DC7
:101FC0001124612FCE0187960E94B836602FCE0172
:101FD0008896DF91CF911F910F910C94B836DF91C5
:101FE000CF911F910F910895CF93C82F6FEF81115B
:101FF0006CE083E290E00E94B8366FEF84E290E0FC
:102000000E94B8366FEFC11168E485E290E0CF918D
:102010000C94B8367F928F929F92AF92BF92CF92DC
:10202000DF92EF92FF920F931F93CF93DF93CDB781
:10203000DEB764970FB6F894DEBF0FBECDBFA09099
:102040001901B0901A0181E090E090931A018093F9
:1020500019018AEBC82E85E0D82E00E0760110E049
:1020600015C0F40125913491472D612F802F0E94D6
:10207000BF0F82E0880E911C7394ECE07E12F1CFCA
:10208000F8E1EF0EF11C1F5F153019F04701712CBC
:10209000E8CF0F5F88E7C80ED11C0530F9F60E9423
:1020A000720F1A8219821C821B821E821D82188660
:1020B0001F8288EC90E09A8789874AE050E061EAC5
:1020C00072E0CE0101960E94DC364AE050E06BEAF5
:1020D00072E0CE0101960E94DC364AE050E065EBEA
:1020E00072E0CE0101960E94DC364AE050E06FEBD0
:1020F00072E0CE0101960E94DC367E01EBE0EE0E2E
:10210000F11C8AE0F70111928A95E9F709EC12E0D7
:102110004AE050E0B801C7010E94DC36065F1F4F5D
:102120000931F3E01F07A1F7B0921A01A09219013B
:1021300064960FB6F894DEBF0FBECDBFDF91CF918E
:102140001F910F91FF90EF90DF90CF90BF90AF90D5
:102150009F908F907F90089580E00E94F40F60E040
:1021600086E290E00E94B8360E940A100E94AF0FEB
:1021700081E00C94F40F9B01843070F49AE0899F05
:10218000B00111246F557D4F4AE050E0C9010E9413
:10219000943690E080E008958FEF9FEF08958F923E
:1021A0009F92AF92BF92CF92DF92EF92FF920F93E6
:1021B0001F93CF93DF93CDB7DEB72A970FB6F8946E
:1021C000DEBF0FBECDBF00EE13E0F12CE12C82E4A8
:1021D000C82E8CE2D82E9CE6A92E9CE2B92E2BEAC2
:1021E000822E2BE2922EF801D182C082B382A2828B
:1021F00095828482F58AE48ABE016F5F7F4F8E2DBF
:102200000E94BB10892B29F489859A85F801938B4C
:10221000828BFFEFEF1AFF0A0A5E1F4F84E0E81679
:10222000F10409F72A960FB6F894DEBF0FBECDBFB2
:10223000DF91CF911F910F91FF90EF90DF90CF90A2
:10224000BF90AF909F908F900895CF92DF92EF92C2
:10225000FF920F931F93CF93DF93CDB7DEB72A97EB
:102260000FB6F894DEBF0FBECDBFE8E9F2E080E51F
:10227000DF011D928A95E9F7E5E7F3E088E3DF01E6
:102280001D928A95E9F788E9C82E82E0D82E7F0151
:1022900009EC12E0F701D182C0824AE050E0B801B7
:1022A000CE0101960E94943688E0FE013196D60157
:1022B00001900D928A95E1F789859A85D701139649
:1022C0009C938E931297BAE0CB0ED11CE7E0EE0EF2
:1022D000F11C065F1F4F0931F3E01F07D9F62A965C
:1022E0000FB6F894DEBF0FBECDBFDF91CF911F9127
:1022F0000F91FF90EF90DF90CF900895CF92DF92F3
:10230000EF92FF926B017C010E946907B701A60161
:1023100088E090E0FF90EF90DF90CF900C94CA3669
:102320005F926F927F928F929F92AF92BF92CF9265
:10233000DF92EF92FF920F931F93CF93DF9300D022
:102340000F92CDB7DEB7182F762E042F622E809114
:10235000850280FF29C0E82FE695AE2FB0E0AE5889
:10236000BE4F9C9190935F028E7F823081F59E01DB
:102370002F5F3F4F812F0E9478074B8169818A81AF
:102380000E94030E109386027092870200938802C7
:10239000662051F0609185027091860280918702DB
:1023A000909188020E947E110F900F900F90DF9104
:1023B000CF911F910F91FF90EF90DF90CF90BF9042
:1023C000AF909F908F907F906F905F900895923024
:1023D00019F410918602D6CF9530D9F39B3091F63F
:1023E000EB508E2F8170582EE695F0E0EB54FA4FAB
:1023F000A590B490BB2481E6E82E82E0F82ED12C83
:10240000C12C9CE0892E912CC601B4010E942C366F
:10241000812F511013C0860F9701402F672D0E9406
:102420007807CA0CDB1C83E0E80EF11C85E8E8168F
:1024300082E0F80649F70E94A40DA4CF861BECCFDA
:10244000E5E8F2E0438128E0421B08F440E021E0A7
:10245000628181810C949011E5E8F2E0438128E0EB
:10246000420F08F44FEF21E0628181810C949011BA
:10247000E5E8F2E0628128E0621B08F460E021E018
:10248000438181810C949011E5E8F2E0628128E0BB
:10249000620F08F46FEF21E0438181810C94901169
:1024A000E5E8F2E0818121E04381628188500C946B
:1024B0009011E5E8F2E0818121E043816281885F4B
:1024C0000C94901180918902882319F08150809397
:1024D00089026091850270918602809187029091B5
:1024E00088020C947E1180918902833018F48F5FEA
:1024F00080938902609185027091860280918702A3
:10250000909188020C947E119091850290FF3DC0BD
:102510009170811129C0926090938502662351F0D9
:102520006091850270918602809187029091880265
:102530000E947E1160918502669570E04BE050E04C
:102540008EE091E00E946A36892BA9F01092600219
:1025500081E080935C0220E04091880260918702D4
:10256000809186020C949011853110F09862D4CF3E
:10257000880F982BD1CF81E0809360020E948D0656
:1025800090935A0280935902E3CF08958091850277
:102590008695815009F484E161E00C948412809165
:1025A000850286958F5F853108F081E061E00C94AB
:1025B00084129091850290FF07C09695981720F09D
:1025C000961710F40C94CF1261E00C948412E5E895
:1025D000F2E083E0808311828FEF82838383148211
:1025E00060817181828193810C947E1169EE7EEF0E
:1025F00090E080E00E94D63660E082E090E00E94A9
:10260000B83660E083E090E00E94B836109217027E
:1026100060E084E090E00E94B83660E082E290E002
:102620000E94B83660E085E090E00E94B83660E035
:1026300086E090E00E94B8366FEF87E090E00E945D
:10264000B83640E050E0BA0188E090E00E94CA3617
:1026500060E08DE090E00E94B83640E050E0BA01C2
:1026600088E190E00E94CA3660E087E190E00E9435
:10267000B83640E050E0BA018CE190E00E94CA36E2
:1026800070E060E080E290E00E94D63640E050E0EA
:10269000BA0188E190E00E94CA3680E00E94F40FFF
:1026A0000E94AC1040E050E0BA018FE090E00E9440
:1026B000CA3640E050E0BA0183E190E00C94CA369B
:1026C0004F925F926F927F928F929F92AF92BF9242
:1026D000CF92DF92EF92FF920F931F93CF93DF93EE
:1026E000CDB7DEB72A970FB6F894DEBF0FBECDBFC9
:1026F0008E010F5F1F4F8AE0F80111928A95E9F76A
:1027000091E6E92E91E0F92E680126E6422E21E0BD
:10271000522E66246394712C42E7842E41E0942E5D
:10272000F70181917F018F3F09F445C0F894E82FAC
:10273000E295EF70F0E021A18F70A30102C0440F79
:10274000551F8A95E2F7CA01922F982B91A392A167
:102750008095892382A3789400C0E6E6F1E021E029
:1027600030E0B12CA12C41914F3F09F47EC0A42F41
:10277000A295AF70B0E090968C9190E04F7002C03F
:10278000959587954A95E2F780FD6FC0C901A82A03
:10279000B92A220F331F8E169F0629F7F7013197AA
:1027A00080818F3F11F00E94BA0950EA5A95F1F7E3
:1027B000F601B182A082F2E0CF0ED11C4E145F046C
:1027C00009F0AECF4AE050E0B8018BE192E00E9400
:1027D0007736FF24F394009709F4F12C892B09F440
:1027E00047C08AE0F801ABE1B2E001900D928A9512
:1027F000E1F781E080931A020E948D0690931902FE
:102800008093180280911802909119020E947E060E
:10281000059790F180911B0290911C0290934302C6
:102820008093420280911D0290911E029093450276
:102830008093440280911F0290912002909347025E
:102840008093460280912102909122029093490246
:1028500080934802809123029091240290934B022E
:1028600080934A0210921A0207C090E080E08FCF56
:1028700080911A028111C6CF8F2D2A960FB6F89437
:10288000DEBF0FBECDBFDF91CF911F910F91FF90A3
:10289000EF90DF90CF90BF90AF909F908F907F9000
:1028A0006F905F904F9008958091EC0290915E043C
:1028B000892B8093980180911602882309F18091D9
:1028C000BB039091BC03892B29F00E94D60B811188
:1028D0000E949C0B8091980190911602892B809305
:1028E000980120E08AE991E0FC013191CF0131119A
:1028F0002F5FF1E0803A9F07B9F721110E949C0BEE
:1029000048E050E06CE072E088E991E00E947736A0
:10291000892BA9F088E0E8E9F1E0ACE0B2E00190B1
:102920000D928A95E1F7E0913A04F0913B043097DB
:1029300031F00280F381E02D88E991E00994089557
:10294000EF92FF920F931F93CF93DF93EC018A8551
:10295000811134C0EB80FC8087E5F81A26E12E9DBA
:10296000C0012F9D900D1124DC01A052BC4F149684
:10297000ED91FC911597309731F054966D917C91C3
:102980008A519C4F099586E18E9D80018F9D100D87
:10299000112400521C4FF80187810E94C20BF801DC
:1029A00080850E94BB0B0E945414188219861B86D6
:1029B0001E821D821092DF031092DE03DF91CF9101
:1029C0001F910F91FF90EF900895CF93DF93EC014B
:1029D0008989811118C081E0898B8F810E94C90B80
:1029E00080915E049885892B80935E040E94541424
:1029F000EA81FB81309739F06C897D89CE0106969A
:102A0000DF91CF910994DF91CF91089580912501B5
:102A1000877F8093250182E00E94BB0B8091250176
:102A200084FF06C08F7E8093250182E00E94C90B3F
:102A30008091250185FF06C08F7D8093250180E26E
:102A40000E94C90B0C94541490E080E00E94C906C7
:102A500090E080E00E94B30610925E040E9454143D
:102A600086E0E3E5F2E0DF011D928A95E9F7109236
:102A70004D0210924C0210924E020C940E080E94CD
:102A8000E00C80935D040C94241580915D04982FD4
:102A90009670963019F488600C943F15877FFCCFB0
:102AA00021E030E001C0220F8A95EAF7209580915D
:102AB0005D0482230C943F1590910B02809589232D
:102AC00080930B02282F277091F4282F082E000CDA
:102AD000330B9217130659F09091260292FD07C00E
:102AE0008595859585950E9450150C94CF0B08957A
:102AF000CF93C0912602C2FB992790F9981799F0BD
:102B000080FBC2F9C09326026091250284E090E028
:102B10000E94B8366C2F82E290E00E94B83682E0C4
:102B2000CF910C945C15CF91089521E030E001C065
:102B3000220F8A95EAF780915D04822B0C943F1551
:102B40009091260292FD10C098E0899F9001112477
:102B5000622B60930B020E9495150E948D06909344
:102B60000A028093090208950C9495158093170228
:102B70000C9424151092EC02EAE9F1E086E0DF0102
:102B80001D928A95E9F70C9424151F93CF93DF9338
:102B9000CDB7DEB7AA970FB6F894DEBF0FBECDBF94
:102BA00085E594E02091F100DC012D93CD01B4E0A6
:102BB0008D359B07B9F780915604833009F472C0B4
:102BC000B8F4813009F449C0823009F4B3C080916F
:102BD000E80083FF96C280915504909156049A3084
:102BE00008F08FC2E92FF0E0EA50F94C0C9454360B
:102BF0008A3009F48EC08B3009F471C0893039F7FE
:102C000080915504813219F78091590490915A04AA
:102C1000009711F00297D9F68091E800877F8093A2
:102C2000E8008091E80082FF38C09091F300809125
:102C3000F200029731F48091F100813011F086307A
:102C400021F48091F100809348048091E8008B7713
:102C50008093E8000E946A05BACF80915504813ABA
:102C600009F0B5CF8091E800877F8093E8008091DC
:102C7000590490915A04892B61F468E089E494E046
:102C800070E00E941C068091E8008B778093E8003A
:102C90009ECF60E090E080E0F3CF809153048111FB
:102CA000C0CF95CF80915504813A09F090CF8091A3
:102CB000590490915A04892B09F089CF8091E8003A
:102CC000877F8093E8008091E80080FFFCCF8091AF
:102CD00027018093F1008091E8008E77B9CF809131
:102CE0005504813209F073CF8091590490915A04B0
:102CF000892B09F06CCF8091E800877F8093E800F2
:102D00000E946A0580915704809327010E94BA159A
:102D10005ECF80915504813209F059CF8091E8004F
:102D2000877F8093E8000E946A0580915804809311
:102D300047044DCF80915504813A09F048CF8091E6
:102D4000E800877F8093E8008091E80080FFFCCF57
:102D500080914704BECF803899F0823809F0D1C104
:102D6000809159048F70873008F0CBC18093E900BF
:102D70008091EB0085FB882780F91092E90006C05E
:102D80008091510490915204911182609091E800D9
:102D9000977F9093E8008093F1001092F10080916A
:102DA000E8008E77AAC1882309F498C1823009F01F
:102DB000A8C18091570481119BC1809159048F70E3
:102DC0002FEF280F263008F09CC18093E900209156
:102DD000EB0020FF8DC1933031F48091EB008062D5
:102DE0008093EB0085C19091EB0090619093EB0094
:102DF00021E030E001C0220F8A95EAF72093EA0033
:102E00001092EA008091EB008860EACF811179C1CD
:102E1000109157041F778091E3008078812B809375
:102E2000E3008091E800877F8093E8000E946A05B4
:102E30008091E80080FFFCCF8091E3008068809360
:102E4000E30082E0111183E0809353045AC180585B
:102E5000823008F056C120915704309158042C3D1F
:102E6000E3E03E07A1F583E08A838AE289834FB7D6
:102E7000F894DE01139620E03EE051E2E32FF0E00B
:102E800050935700E49120FF03C0E295EF703F5F3D
:102E9000EF708E2F90E0EA30C0F0C7968D939D932F
:102EA0002F5F243159F74FBF8091E800877F8093CF
:102EB000E8006AE270E0CE0101960E941C06809153
:102EC000E8008B778093E8001CC1C096E7CF809123
:102ED000590490915A04432F55274330510509F462
:102EE0004AC078F54130510509F485C08BE590E082
:102EF000EAEAF8E04230510509F003C12091E80008
:102F0000277F2093E80020915B0430915C048217B6
:102F1000930708F49C0140E02115310509F070C0C9
:102F200041116EC08091E80082FDC9CF80915304A9
:102F3000882329F2853019F28091E80083FFF2CFCF
:102F4000BECF4132510509F447C04232510509F064
:102F5000D8C08330910508F0D4C0FC01EE0FFF1FEC
:102F6000E657FE4F0190F081E02D89579E4FDC011E
:102F70008C9190E01DC0332721303105E9F02115F7
:102F8000310579F022303105F9F02330310509F0AF
:102F9000B8C0E7E1F9E0E4918E2F90E0E7E1F9E0D5
:102FA00007C0E7E6F9E0E4918E2F90E0E7E6F9E06C
:102FB000009709F4A6C0A2CFE9E4F9E0E4918E2FCE
:102FC00090E0E9E4F9E0F4CFE5E3F9E0E4918E2F55
:102FD00090E0E5E3F9E0ECCF8330910508F091C093
:102FE000880F991FFC01E057FE4F0190F081E02D02
:102FF00089E090E083CF82E190E0E5E0F9E07ECFE8
:1030000080915304882309F45ACF853009F457CFAF
:103010008091E80083FD53CF8091E80082FD82CF4C
:103020008091E80080FF78CF9091F3008091F200CA
:103030002115310519F08830910550F041E00897CD
:1030400009F040E08091E8008E778093E80064CF3B
:1030500044914093F1003196215031090196E8CF17
:10306000803809F04EC08091E800877F8093E800A7
:10307000809154048093F10092CE811142C010914E
:1030800057041230F0F58091E800877F8093E800C4
:10309000109354040E946A05112311F084E005C0C6
:1030A0008091E30087FDFACF81E08093530442E0F2
:1030B00061EC81E00E94890542E261EC84E00E94BB
:1030C000890542E261EC82E00E94890542E260ECFF
:1030D00083E00E9489058091530413C080915704B6
:1030E000813079F481E0933009F080E080935204DC
:1030F0001092E9008091E800877F8093E8000E94A9
:103100006A058091E80083FF0AC08091E800877F0C
:103110008093E8008091EB0080628093EB00AA9698
:103120000FB6F894DEBF0FBECDBFDF91CF911F91D8
:103130000895882321F00E94BB0B0C945414089529
:10314000882339F090915E04982B90935E040C9440
:1031500054140895882321F00E94C20B0C94541437
:103160000895882321F00E94C90B0C9454140895EB
:103170008823B1F19CEF980F913A70F4EAE9F1E0FD
:103180009191891303C0DF0111971C9291E0E03AFD
:10319000F907B1F70C94541490E2980F983050F45A
:1031A000877091E001C0990F8A95EAF7892F0E94F4
:1031B000C20BF0CF9BE5980F933020F490E080E0B5
:1031C0000C94C90698E5980F973120F490E080E0C0
:1031D0000C94B306803F20F00E9435080C940E0832
:1031E0000895CF93DF93EC010E94B818CE010E949E
:1031F000AF0C9E01205E31092830310510F0CD2B37
:1032000021F4DF91CF910C94AA18DF91CF910C9407
:103210009918CF93C82F882309F452C08CEF8C0FD4
:10322000813AF8F4EAE9F1E080EA91E0DF012D91DA
:10323000C21759F08A179B07D1F76C2F88E991E0E4
:103240000E949906CF910C9454142191C21303C08B
:10325000DF0111971C928E179F07B9F70E94541433
:10326000ECCF80E28C0F883048F4C77081E001C059
:10327000880FCA95EAF70E94C90BE4CFEBE5EC0F83
:10328000E33040F4F0E0E05DFE4F808190E0CF91CC
:103290000C94C906E8E5EC0FE73150F4F0E0EE0FCE
:1032A000FF1FED5CFE4F80819181CF910C94B3069E
:1032B000C03F30F08C2F0E945009CF910C940E0823
:1032C000CF9108951F93CF93DF93182FC091D90307
:1032D000D091DA03893321F0C091D703D091D8037C
:1032E000812F0E940919209731F4812FDF91CF910E
:1032F0001F910C94B8188FE99FE00197F1F700C077
:1033000000002197F0CF0F931F93CF93DF93C42F2B
:10331000D22FFC0182818823A1F04093DD030E941B
:103320008D069093DC038093DB03C77081E001C0BE
:10333000880FCA95EAF7DF91CF911F910F910C94F6
:10334000B1181091DD03141339C08091DB03909103
:10335000DC030E947E062091D1033091D2038217B4
:10336000930760F5C0E2CD0F1D17B9F080E2810F21
:10337000883040F4177081E001C0880F1A95EAF791
:103380000E94AA18C83048F481E09D2F977001C0B0
:10339000880F9A95EAF70E94B118802F0E9462194F
:1033A000C83098F4D77081E001C0880FDA95EAF749
:1033B000DF91CF911F910F910C94AA18C77081E0F3
:1033C00001C0880FCA95EAF7F3CFDF91CF911F9123
:1033D0000F910895DF92EF92FF920F931F93CF9377
:1033E000DF93E82FF0E0E154FE4FD490282F26958C
:1033F0002695269530E0F901E155FE4F049187703E
:1034000010E0082E02C0159507950A94E2F70170A6
:103410001127F901E156FE4FE490F12C082E02C06D
:10342000F594E7940A94E2F791E0E922FF24F90188
:10343000E157FE4FC491D0E002C0D595C7958A955B
:10344000E2F7C170DD270115110519F081EE0E9428
:103450000919E114F10419F086EE0E9409198D2D65
:103460000E946219EF2819F086EE0E94B818012B0D
:1034700019F081EE0E94B818CD2B51F08CE2DF914B
:10348000CF911F910F91FF90EF90DF900C946219F4
:10349000DF91CF911F910F91FF90EF90DF900895F2
:1034A0001F93CF93DF93EC011AE08881882309F4FE
:1034B0003EC08130C9F599818A81913029F42296E4
:1034C0000E9462192196F1CF923021F422960E9437
:1034D0000919F8CF933021F422960E94B818F2CF40
:1034E000943011F02196EECF229630E020E0AE012C
:1034F0004F5F5F4F8053990B8A30910550F02150F8
:10350000310900F38FE99FE00197F1F700C0000057
:10351000F6CF129FB001139F700D11249C01260F4E
:10352000371F8981EA01E3CF0E94EA19CBCFDF91EF
:10353000CF911F910895CF93DF93EC010E94AF0CC0
:103540009E01205E31092830310510F0209739F4B2
:103550000E94B1188C2FDF91CF910C9409190E9411
:10356000A018F8CF662329F020915E0422602093F2
:103570005E049C013056211540E2340720F0305E95
:103580002115304108F499270C949B1ADF92EF9291
:10359000FF920F931F93CF93DF937C018B01D42E67
:1035A0008091250182FF8CC0C0910F03D091100340
:1035B000CE15DF0521F0E114F10409F081C08091FE
:1035C00025018B7F8093250181FD73C080910D03C0
:1035D00090910E03A801481B590B81E02091230113
:1035E000309124014217530708F480E08170F82ECF
:1035F00080912501F0FA81F980932501FE0183E095
:10360000F695E7958A95E1F7EE71FF27E351FD4FB7
:1036100020813181AE014F70552781E090E002C0DA
:10362000880F991F4A95E2F7FF2009F444C0822BC6
:10363000932B918380838091EC0281FF08C080915D
:10364000250180618093250182E00E94C20B809158
:10365000EC0285FF08C080912501806280932501DE
:1036600080E20E94C20B6F2DCE010E94B21ADD20B3
:1036700031F08091D40385FF02C086FF3BC080916A
:10368000D7039091D8030E949A0D80910F039091D7
:1036900010039C013056211540E2340720F0305EC3
:1036A0002115304108F499270E94F1180E9406154F
:1036B0001DC081E09BCF8095909582239323B9CF45
:1036C000C701992797013056211540E2340728F0A9
:1036D000305E2115304108F0C7010E94F118809139
:1036E0000F03909110038E159F0501F310930E03A5
:1036F00000930D03DF91CF911F910F91FF90EF90F9
:10370000DF9008958F929F92AF92BF92CF92DF92F7
:10371000EF92FF920F931F93CF93DF9300D000D0CF
:10372000CDB7DEB77C01DC0113964D915C91149707
:1037300011966C9111978C910E94EB0681117AC0C1
:1037400061E0C7010E94200F8C01F7018281811185
:1037500012C0D70112968C9181114AC00031FFE549
:103760001F0709F4EFC001312FE5120711F00C9487
:10377000C52382E0E8C080910C0190910D01019673
:1037800041F3E0EECE2EE3E0DE2EB12CA12C992405
:10379000939480910C0190910D018A159B05CCF2B8
:1037A000F60186818823E9F081859285081719073B
:1037B00039F48091DE039091DF030817190789F02F
:1037C000D6011F969C921F971C961C930E931B97D5
:1037D000C6010E94E514C60106960E94A01410922C
:1037E0005E04BFEFAB1ABB0AE6E1CE0ED11CD1CF0F
:1037F000980122513F452031310508F0BCC78FEFB9
:1038000093E00E94A4367EEED72ED00E09E113E09D
:10381000882369F180910B02877061F0D7011296BD
:103820008C91882339F08091260282FD03C082E0CA
:103830000E945C150F900F900F900F90DF91CF9129
:103840001F910F91FF90EF90DF90CF90BF90AF90BE
:103850009F908F9008950115F4E01F07D9F2C801D9
:103860000E94A436811101C0DA940F5F1F4FD1105E
:10387000F2CF19821A821B821C82CC24CA9448017E
:103880002FEF821A920AC8010E94A43689831A82F5
:10389000882309F4BFCF813009F048C0580132E0D5
:1038A000A30EB11CC4010E94A436982E8A838823DB
:1038B00009F4B0CFC5010E94A436D82E8FEF890D30
:1038C000833068F4580143E0A40EB11CDB82DD2094
:1038D00021F0CE0101960E94501A8501D0CF54E00C
:1038E0009512FBCF580184E0A80EB11CC8010396C5
:1038F0000E94A436DD2009F48DCF882309F48ACFF5
:103900008150990BC89E9001C99E300D1124AD2D98
:10391000A150BB0BCD01820F931F0197F0F2EFE98D
:10392000FFE03197F1F700C00000F7CFCE0101961C
:103930000E94501A5401D1CF81E00E9495150E9437
:10394000451568CF81E00E945015F9CF82E0F5CF90
:103950004FEFC416D10411F008F023C76EE872E0EF
:103960008C2D0E94BB10892B29F586E18C9DF001DE
:103970008D9DF00D1124E052FC4F8681813009F0BD
:1039800062C080918E0290918F02892B99F0809174
:10399000900290919102892B69F08091920290910E
:1039A00093022091940230919502822B932B892BC4
:1039B00009F453C080910C0190910D018C159D0567
:1039C00024F4D0920D01C0920C01F701828196E19E
:1039D0009C9D50019D9DB00C1124950120523C4F9F
:1039E0006901D90150968C935097928116968C91CB
:1039F0001697992309F43FC01A961C930E931997B2
:103A00008F5F16968C930E948D06F60196878587A8
:103A100080911602878380915E049091EC02892B3D
:103A200080870190F081E02D309741F0D6015496C7
:103A30006D917C91C5018A519C4F09951093DF03CC
:103A40000093DE03AEC6823009F0B4CF80919202BB
:103A500090919302892B09F4ADCF26E12C9DC001F2
:103A60002D9D900D112480529C4FDC0150961C928C
:103A70000E94E5149FCF882309F493C6F901818938
:103A8000882309F48EC6C5018A519C4F0E94A01458
:103A900088C682EE0E940919C7C688E193E00E9499
:103AA0009B1A88E193E00E94F118BEC68091A101A3
:103AB000811103C083E50E94621982EE0E940919F8
:103AC0008FE39CE90197F1F700C0000087E50E94B1
:103AD0006219AAC686EE0E94621988E1F8CF865064
:103AE000C8C696EF980F963020F0805D0E94EA19C4
:103AF000C2C6895AFBCF82EE0E94B818D2C68CE2A9
:103B00000E9462198091A201882309F4CAC689E340
:103B10000E946219C6C682EE0E94B8188091A10167
:103B20008111BFC683E5F4CF88E2F2CF80912501F1
:103B3000816080932501E7C6809125018E7F809367
:103B400025010E940615DFC6809125018F7E013E6A
:103B5000110531F0053E1105C9F4809125018F7DD5
:103B6000809325018091250180FFDCC6D701129644
:103B70008C910832110528F50E31110508F074C03A
:103B80000430110580F58111C9C6CCC6C801905614
:103B9000811540E2940720F0905E8115904110F766
:103BA0008091250182FFBEC68091D60381FDBAC6F1
:103BB00027E332E040E0B60190E080E00E94C61AC0
:103BC000B1C60933110558F40D32110518F40B3242
:103BD0001105C9F69091D40392FDD5CF08C00436E3
:103BE0001105C1F3D0CF9091D40394FDCCCF88239D
:103BF00009F4A1C09091EC0280911602282F292B84
:103C0000322F3D7FB1F11092100310920F033091CB
:103C1000D40331FD2EC0F80143E0F695E7954A95AF
:103C2000E1F7EE71FF27E351FD4F98012F70332725
:103C300081E090E002C0880F991F2A95E2F78095F5
:103C4000909520813181822393239183808360E04A
:103C5000C8010E94B21A809116028D7F0E94A70BA4
:103C600082E00E945C15D6CD9091D40393FD8BCF5A
:103C7000BECF38E0F701A7E3B2E001900D923A958C
:103C8000E1F71092390210923B0210923A02A09092
:103C90000F03B09010030A151B05B1F53091D40342
:103CA00035FF32C04091250141FB992490F841FF36
:103CB00002C036FF29C040910D0350910E03B6019A
:103CC000641B750B4091D1035091D20364177507A3
:103CD000D8F491FF08C0809125018061809325016F
:103CE00082E00E94C20B8091EC0285FF08C08091A7
:103CF000250180628093250180E20E94C20B692D1C
:103D0000C5010E94B21A86CD9091250121FB91F93F
:103D1000909325018D7F0E94A70B109310030093B1
:103D20000F03D0920E03C0920D0380912501846091
:103D30008093250195CF970140E0B601C8010E940C
:103D4000C61A68CD053F4CE5140709F469C008F4AC
:103D500061C0063F8CE5180709F468C0D7011296C8
:103D60003C91332309F4FEC51092DD030330BDE519
:103D70001B0708F067C00A3FECE51E0730F4C801D6
:103D800082509C45449708F067C00E94470F90936B
:103D900026028093250201313CE5130709F451C145
:103DA00008F0CEC009305CE5150709F438C108F009
:103DB0009BC005309CE5190709F429C108F081C0B2
:103DC0000330BCE51B0709F418C108F01CC1809141
:103DD0002502816002301C4509F412C16091250260
:103DE0001091260284E090E00E94B836612F82E2B2
:103DF00090E00E94B8360E94BA150CCD07E225EE7D
:103E000045EE68ED7CE5A9C506E221EE40EE63EFE4
:103E10007CE5A3C507E225EE44EE64EF7CE59DC595
:103E200006E221EE42EE65EF7CE597C507E225EE5E
:103E300046EE66EF7CE591C508E221E045EE69EDCE
:103E40007CE58BC50136FDE51F0709F49ECF053AD9
:103E50002DE5120709F499CF06318CE5180709F012
:103E6000D8C18091EC02982F9A7A2091D30320FF39
:103E700004C0482F447409F090E021FF04C0482F8B
:103E8000417109F090E022FF04C0482F487809F002
:103E900090E023FF03C0827209F090E0332309F41D
:103EA000FAC081E0911101C080E08093A30169E232
:103EB000911165E388E991E00E9499060E945414EB
:103EC000A9CC80912502806207302CE5120709F405
:103ED00097C080912502806108301C4508F490C08D
:103EE0008091250280648CC0809125028B7F0D30EB
:103EF0004CE5140709F484C080F40B308CE51807F6
:103F000009F493C0809125028C600C301C4508F4A4
:103F100077C0809125028D7F73C0809125028F7EAE
:103F20000F30ACE51A0709F46BC080912502877F3A
:103F300000311C4508F464C0809125028F7D60C06B
:103F40000D3FECE51E0709F478C050F505312CE56E
:103F5000120709F480C098F480912502837F033111
:103F60004CE5140709F44CC008F46FC00E94BA1560
:103F700090912502892F97FB87F9805841C00B3F0C
:103F80008CE5180709F447C008F053C08091260259
:103F900081600A3F1C4509F021CF809326021ECF85
:103FA0000130BDE51B0709F462C0B8F48091260218
:103FB0008C7F0F3FFCE51F0781F380912602836011
:103FC00001151D4550F380912602982F9095917010
:103FD0008E7F892B90FB81F9E0CF01363DE51307F9
:103FE00009F44BC0053A4DE5140709F44DC0023001
:103FF0001D4509F0F3CE60E03BC080912502826050
:1040000080932502EBCE809125028460F9CF8091C8
:1040100025028860F5CF809126028260BECF0E9483
:10402000BA15809125028068EBCF809125028E7FA2
:10403000E7CF809126028E7FB0CF809126028D7FC0
:10404000ACCF809125028F7BDBCF0E94BA15809187
:1040500025028F77D5CF8091250282FB992790F991
:1040600021E0922790FB82F990FB83F9C9CF61E0B0
:104070008EE090E00E94B836B1CE90912502892F53
:104080008F7E94FF8061BCCF90912502892F8E7F17
:1040900090FF8160B5CF8091A30181110FC089E2AB
:1040A000EAE9F1E020EA31E09191891303C0DF01F0
:1040B00011971C922E173F07B9F700CF85E3F0CF79
:1040C000043C4CE5140709F478C0053C1C4509F094
:1040D0006AC440E552E169E572E114C0083C9CE520
:1040E000190709F479C008F472C0093CBCE51B0744
:1040F00009F477C04CE252E160E272E10A3C1C45EF
:1041000009F051C40E94630785CB003DFCE51F0701
:1041100009F479C0A8F40D3C3CE5130709F470C01C
:1041200008F469C00E3C5CE5150709F473CB0F3C3D
:104130001C4509F038C464E082E00E94D9126ACBC1
:10414000043D9CE5190709F461C008F463CB053D03
:10415000BCE51B0709F45ECB0D351D4509F45ACBB0
:1041600022C48091850280FF1BC08E7F80938502D0
:1041700060918502709186028091870290918802F9
:104180000E947E1110926002FFEF20E732E0F150B2
:1041900020403040E1F700C000000E94A40D3ACB5F
:1041A00081608093850261E086950E94841232CB03
:1041B00046EC52E16FEC72E1A5CF4FEC52E166ECB8
:1041C00072E1A0CF49E552E160E572E19BCF48E39F
:1041D00052E164E472E196CF44E452E168E372E1B3
:1041E00091CF40E252E16CE272E18CCF42E652E1C3
:1041F00063E772E187CF43E752E162E672E182CF83
:1042000061E081E0D2CF6AE085E097CF64E18BE0A6
:1042100094CF0A354DE5140759F158F401158CE592
:104220001807C9F00E3D1C4509F0BDC30E94F612E7
:10423000F1CA0B35ADE51A07E9F00C351D4509F05B
:10424000B2C38091260282FB882780F991E08927FA
:104250000E947815A8C30E94BA15EFEFF4E32CE092
:10426000E150F0402040E1F700C000000E94760DD0
:1042700081E0EECF80E0ECCF828100811181882344
:1042800069F0C8010E94AE0ED82E682FC8010E94A6
:104290004D0CB8018D2D0E94920E8BC3C8010E9457
:1042A000200CD82EF6CF202F2F70B22E802F807F9B
:1042B00019F0B29490EFB922DD20A9F0BB2059F09B
:1042C00080E2810F883010F0111107C08B2D0E9401
:1042D000C90B0E945414812F5AC080915E04B82AE1
:1042E000B0925E04F6CF812F0E94B818BB2009F46B
:1042F00050C080E2810F883010F0111104C08B2D66
:104300000E94C20B03C08B2D0E94BB0B0E94541451
:1043100040C0302F3F70B32E802F807F803219F045
:10432000B29480EFB822112321F1113009F4A6C014
:10433000DD2009F4AFC0CC2009F47FC020E0D70114
:104340004C9111965C91119712966C91129713965D
:104350007C91139714968C910E94F70E8091D6034E
:1043600081FDB9CFF701858180FFB5CF8F7085833F
:1043700064C08091260282FF42C0DD20D1F1BB20C3
:1043800029F08B2D0E94C90B0E94541480E00E94DA
:104390000919A92DA850BB0B149720F40E94DF0621
:1043A0000E94980C812F902F0E947D0C8111C4C116
:1043B0001092A5011092A401AA20B1F080910B02E5
:1043C00080FD12C0D70112961C9285958595859522
:1043D0000E949515C7010E94821B80910B02859552
:1043E000859585950E94501560E0C7010E94200FB9
:1043F00021CA80E00E94B818BB2059F280CFDD208E
:1044000001F1C11004C0809116028B2917C041E050
:10441000C41206C0809116028B290E94A70BB9CF47
:104420008091D503823078F3C812EDCF0E949C0BA7
:1044300080910802B812B09208028B2D0E94B11828
:10444000A8CFC11006C00E949C0B8B2D0E94AA18F9
:10445000A0CF8091D50351E0C5120BC0823008F483
:1044600098CF8091EC028B2109F493CF0E94F00B3E
:10447000EACF823040F3C812E6CF8BCFDD2029F09F
:1044800085E08C1508F485CFD8CF94E09C1508F40E
:1044900080CFDBCFCC20C9F28091D9039091DA0391
:1044A000193321F08091D7039091D8030E949A0D7F
:1044B000812F0E94B8186DCF802F869586958370C6
:1044C00069F0813009F065CF812F902F9370D11062
:1044D00002C090E080E00E94B3065BCF812F902F56
:1044E0009370D11002C090E080E00E94C90651CFC5
:1044F000812FDD2029F00E9450090E940E0849CF2B
:104500000E943508FACF802F837091F5D11041CFEA
:10451000412F429546954770440F440F812F8F706D
:10452000042E01C0880F0A94EAF7212F207114FF8E
:1045300007C02FE030E001C0220F4A95EAF720952E
:10454000302F369536953370323069F050F4409103
:104550001702313029F0822B84230E94B61519CF1F
:10456000842B822BFACF282B809117028227F5CF3C
:104570008695DD2011F0802F8170882309F409CF02
:10458000412F429546954770440F440F812F8F70FD
:10459000042E01C0880F0A94EAF7212F207114FF1E
:1045A00007C02FE030E001C0220F4A95EAF72095BE
:1045B000302F369536953370323069F050F4409193
:1045C0005D04313029F0822B84230E943F15E1CE17
:1045D000842B822BFACF282B80915D048227F5CF84
:1045E000F02FFF70BF2EDD2029F08F2F0E94951530
:1045F000812F24CF812F0E94AA188B2D0E94501545
:10460000C8CE123F89F160F4103FB9F0113F81F03C
:10461000DD2009F48CC0C1105ECE802F8F7128C0C0
:10462000133F49F1143FA1F78091260282FF2FC06A
:10463000802F8F71DD2011F31BC0DD2081F024E07D
:104640002C1508F4A6CE202F2F7181E090E001C038
:10465000880F2A95EAF790915D048927B6CF35E057
:104660003C1508F496CEEFCF802F8F71D110C6CFB6
:104670000E9495158ECE80E0DD2009F4A6CF81E062
:10468000902F9F7101C0880F9A95EAF79ECF809175
:10469000D5038230A0F180910802DD20F1F00E9464
:1046A000C20B80910B028770843041F40E94CF0BC3
:1046B000802F8F710E945015A12C6BCE8091D50355
:1046C000C816D0F7402F4F71B42E842F0E94951535
:1046D00063E08B2D0E94A015EFCF0E94C90B809143
:1046E000D503C81640F00E94CF0B0E94F00B64E087
:1046F000802F8F71EFCF81E00E945C15DDCFDD2030
:1047000059F0502F5F71B52E852F0E94951563E0EB
:104710008B2D0E94A0153DCE81E00E945C1581E0AA
:104720008C1508F036CE82E00E945C1532CEC110A6
:10473000B3CE802F8F7162CFDD2019F0C11038CE3B
:104740003BCEC11035CE20E0F7014081518162811E
:10475000738184810E94F70E8091D60383FF28CE57
:104760008091A4019091A501029709F021CE812F9B
:104770000E9462191DCE0031BFE51B0709F4DCC899
:104780000131EFE51E0709F4E1C8680127E5D21AF7
:10479000882309F4DDC83FEFC316D10409F008F4FB
:1047A00009C9D70112968C91882369F0C801815EEE
:1047B0009C45059740F46FE1600F609327028CE001
:1047C00090E00E94B83617FF70C0F70182818823FD
:1047D00009F46BC00E94DF06869581708093A20168
:1047E0000E94DF0681708093A101809127028130B1
:1047F00039F48091A201882319F089E30E9462199B
:104800008091EC028093A0011092EC02809127022B
:10481000813009F442C9882309F43BC9823009F484
:1048200045C9843009F456C9AFE3BCE91197F1F7E3
:1048300000C000005801E894B7F85CE0C52ED12C08
:104840006AE0862E912CC5010C2C02C096958795A6
:104850000A94E2F78F7090912702923009F041C9D3
:104860008A3008F03CC990E00996B4010E944036B5
:10487000875A0E946219B4E0CB1AD108ECEFCE1629
:10488000EFEFDE0601F780912702813009F437C986
:10489000882309F430C9823009F43DC9843009F411
:1048A00043C98091A0018093EC028091D40380FFE2
:1048B00039C00E948D066C01D70112968C91882315
:1048C00009F442C98091250182FF08C027E332E044
:1048D00040E0B60190E080E00E94C61A0B31BCE5D2
:1048E0001B0709F423C90C31ECE51E0709F424C9A0
:1048F00090912501892F8E7F90FF81600A31FCE520
:104900001F0709F41CC9C8019056811520E29207BF
:1049100028F0905E8115904108F024C91092100390
:1049200010920F03033FBCE51B0709F46DCA08F0A2
:1049300009CA083DFCE51F0709F460CA093D2CE5DA
:10494000120709F479CA073D3CE5130709F006CAC6
:1049500006E221EE41EE67ED7CE5C7010E94831976
:104960000C940A1C06314CE5140709F47ACA8091AC
:10497000EC0282720B3C9CE5190709F437CC08F075
:10498000C4CB063CBCE51B0709F41CCC08F0A6CB45
:10499000033CFCE51F0709F40BCC08F091CB023C6B
:1049A0001C4509F4DECBF70186819781009709F455
:1049B00063CC0E94140A182F092FF701D280C580FA
:1049C000C2943FE0C32280910B028770C1F0AD2CEE
:1049D000DD20B1F0892F807F803421F080E2810FCB
:1049E000883068F08091260282FD09C082E00E9432
:1049F0005C1580910B028770AA24A3948111A12CCD
:104A0000902E92942FE09222FBE0F91508F4C1CC8D
:104A1000E92DF0E0E050F94C0C945436CF92DF923F
:104A2000EF92FF920F931F93CF93DF938091C30177
:104A3000807F31F48091C001C091070281110BC0C9
:104A4000DF91CF911F910F91FF90EF90DF90CF906A
:104A500008952196C7708091C6018C1789F3F09054
:104A6000BE01E090BF01C090C101D090C201A6017B
:104A70006E2D8F2D0E94EB06D0E08111EACF8E01C2
:104A800083E0000F111F8A95E1F7F801E953FE4F0B
:104A900081818E11DECF80818F11DBCF82818111E8
:104AA000D8CFE380F480EC18FD0860E08EEB91E055
:104AB0000E94200F8091D1039091D203E816F9064D
:104AC00040F68091C3018F7080618093C301F8012B
:104AD000E453FE4F80818F70806180838EEB91E084
:104AE0000E94821BDF91CF911F910F91FF90EF9059
:104AF000DF90CF900C94160C3F924F925F926F9282
:104B00007F928F929F92AF92BF92CF92DF92EF925D
:104B1000FF920F931F93CF93DF93CDB7DEB76597C7
:104B20000FB6F894DEBF0FBECDBF8C0185E0F80153
:104B3000DE01519601900D928A95E1F7D8014C90D3
:104B400011965C9011971296EC9012971396CD9057
:104B5000DC9060E08EEB91E00E94200F8EEBA82E9F
:104B600081E0B82E8090C1019090C201A4016091B3
:104B7000BF018091BE010E94EB068111CAC1F09075
:104B8000C001F601E819F9094F0160E0FF2009F4BE
:104B90006DC1C5010E94200F6090D1037090D203B7
:104BA0003090C3018614970408F013C14091C101ED
:104BB0005091C201B090BE01A090BF01832D807FB3
:104BC0006A2D09F0ADC08B2D0E94EB06FE2C8111E1
:104BD0003BC0D80111968C9111978A1135C08C91E8
:104BE0008B1132C02091C4013091C50116968D9170
:104BF0009C912817390741F5E11026C0832D8F704D
:104C000080618093C3018EEB91E00E94821B8091B2
:104C1000C301F80185838F2D65960FB6F894DEBF2A
:104C20000FBECDBFDF91CF911F910F91FF90EF90FD
:104C3000DF90CF90BF90AF909F908F907F906F90BC
:104C40005F904F903F900895F4EF6F16F1E07F066C
:104C500020F48091D60380FF21C0A601652D842D0C
:104C60000E94EB06811118C081E08E2580FF16C0DE
:104C70004E2D652D842D0E94F60B882379F08EEB46
:104C800091E00E94821B88E0EEEBF1E0DF011D92D3
:104C90008A95E9F7F12CBFCF80E0E8CFA601652D1A
:104CA000842D0E94EB06811124C081E08E25B82F4F
:104CB000B170CB2E80FF2BC04E2D652D842D0E9410
:104CC000F60BD82E811123C0498A5A8A89899A897C
:104CD0000E94DD0E292F22952F70223060F02430A3
:104CE00088F49F7061F0F8019581907F41F4FD2C6C
:104CF00092CF80E0DCCF9F7011F08823C1F3805EFB
:104D00008830A8F3C8010E94821BDC2CF0CFEE2073
:104D100009F481CF8091C30181608093C301BACF30
:104D20008B2D0E94EB06811124C0D80111968C9125
:104D300011978A111EC08C918B111BC02091C40148
:104D40003091C50116968D919C91179728173907B8
:104D500081F4E1100EC015963C92C8010E94821B9E
:104D600088E0F801AEEBB1E001900D928A95E1F791
:104D700052CFC8010E94E90E882339F1EE2029F1B3
:104D80008091C3018032A0F02091BE013091BF011B
:104D90003A8729871B86DD86CC868E878091C40161
:104DA0009091C501988B8F87CE0109960E94821B36
:104DB00088E0F801AEEBB1E001900D928A95E1F741
:104DC0000E940E25FF24F39426CFC8010E94821B67
:104DD000F9CF832D807F09F452CF9090BE0180904F
:104DE000BF014091C1015091C201682D892D0E94DF
:104DF000EB0681111CC0F8018181881118C08081E7
:104E0000891115C02091C4013091C5018681978117
:104E10002817390761F4E1100AC03582C8010E94E1
:104E2000821B88E0D5011D928A95E9F7F4CEC8016E
:104E30000E94E90E882349F2EE2039F28091C301E5
:104E4000803208F4B5CF2091BE013091BF013A8382
:104E500029831B82DD82CC828E838091C401909154
:104E6000C50198878F83CE010196A0CF8EEB91E08C
:104E70000E94200F8091D1039091D2038816990649
:104E800080F6FE2CEE2009F4A0CFE090BE01D09079
:104E9000BF014091C1015091C2016D2D8E2D0E9424
:104EA000EB06811128C0F80181818D1124C0808119
:104EB0008E1121C02091C4013091C5018681978156
:104EC00028173907C1F48091D60382FD49CF90910C
:104ED000C30190FD45CF907F09F442CF8091C3017B
:104EE0008583903F09F439CF982F907F905F8F7022
:104EF000892B858332CFC8010E94E90E811158CFDA
:104F00008091C30181608093C301C8010E94821B0C
:104F100082CEEE2009F459CFC8010E94E90EF82E86
:104F2000882309F452CF88E0F801AEEBB1E001909C
:104F30000D928A95E1F78091BE019091BF010E9488
:104F4000DD0E0E940E2567CECF93DF93CDB7DEB77F
:104F500060970FB6F894DEBF0FBECDBF29873A87A2
:104F60004B875C876D877E878F87988BCE010996EC
:104F70000E947C2581112FC088E0FE013996DE0158
:104F8000119601900D928A95E1F74C855D856A85B1
:104F900089850E94EB0681111EC0A091C601B0E078
:104FA000CD010196877099272091070228171906CD
:104FB00009F193E0AA0FBB1F9A95E1F7A953BE4FE1
:104FC00098E0FE01319601900D929A95E1F7809359
:104FD000C6010E94160C809107029091C6018913A8
:104FE00017C060960FB6F894DEBF0FBECDBFDF913D
:104FF000CF9108950E94BA151092C601109207022F
:1050000088E0EEEBF1E0DF011D928A95E9F7E3CF4E
:10501000B8E08B9FC001112489539E4F0E947C25CC
:105020008823F9F28091070290E001968770992712
:1050300080930702D0CFEF92FF920F931F93CF93ED
:10504000DF9380911403882361F0C09113038CE0F7
:10505000F82E80911403C81758F010921403109280
:105060001303DF91CF911F910F91FF90EF9008955F
:10507000EE24E394EC0EE09213030C2F10E0CF9D8E
:10508000E0011124CB5EDC4F4B815C81698188811A
:105090000E94EB0681111DC08E819F81892B21F416
:1050A00088859985019651F4288139814A815B81EF
:1050B0006C817D818E819F810E94A427F09EF001EA
:1050C000F19EF00D1124EB5EFC4F148213821092BE
:1050D0005E04CE2DBECF1092B8031092B70310928B
:1050E00026018091B6038093B5030E9424070C9497
:1050F0001B283F924F925F926F927F928F929F9266
:10510000AF92BF92CF92DF92EF92FF920F931F93D5
:10511000CF93DF93C091B50397E0892E01E010E0B3
:105120002CE0322E3EEF932E442443948091B6031C
:105130008C1315C00E941B28DF91CF911F910F91F6
:10514000FF90EF90DF90CF90BF90AF909F908F90A7
:105150007F906F905F904F903F900C942407D0E029
:10516000FE01EE0FFF1FE355FC4F80819181889E69
:10517000D001899EB00D1124AB58BC4F14962C91D0
:105180001497211157C050901403E5E1F3E030E08B
:1051900020E0712C5D01251508F04AC0E284F384FB
:1051A000D501CD90DC906FEF7FEF612C462D50E064
:1051B000DA01AA0FBB1FAC0DBD1D0D90BC91A02D37
:1051C000109731F0EA16FB0609F4BA016394EECFAA
:1051D0006F3F7607A1F1D80102C0AA0FBB1F6A95E5
:1051E000E2F77A2AB80102C0660F771F6A94E2F7E5
:1051F000AB014150510974161506F9F4329EF001C5
:10520000339EF00D1124EB5EFC4F889ED001899EE9
:10521000B00D1124AB58BC4F12962D913C911397B1
:1052200037832683908291829187808715964C924E
:105230000E94F6062196C37079CF148213822F5FE5
:105240003F4F3C96A8CF2F923F924F925F926F9222
:105250007F928F929F92AF92BF92CF92DF92EF9206
:10526000FF920F931F93CF93DF93CDB7DEB769976C
:105270000FB6F894DEBF0FBECDBF942F498B252FFC
:105280005A8B6B8B7C8B8D8B4C895D89622F892F20
:105290000E94EB06811109C08091A4019091A501A3
:1052A00001969093A5018093A4018B89811110929E
:1052B0005E041D861E861F86188A85E0FE01719693
:1052C000DE01199601900D928A95E1F780912602F0
:1052D00082FD1EC08091BB039091BC03892BC1F05D
:1052E0000E948D062091090230910A02821B930BC5
:1052F0002091BB033091BC038217930720F080916B
:105300000B0282FFF5C10E94D60B81110E949C0BFB
:105310004C855D856A8589850E94EB06811111C0E7
:1053200061E0CE0109960E94200F6C018B8527EF6A
:10533000C2162CE5D20681F4882321F181E0809306
:10534000260129853A854B855C856D857E858F850F
:1053500098890E94A427C5C038EFC3163CE5D30640
:1053600029F4882379F00E946B28EBCF49EFC4160B
:105370004CE5D40639F4882329F080912601811167
:10538000F2CFDCCF05E713E0512CB12CA12C222465
:105390002394312C2EEF422EF80140815181882434
:1053A0008A94982C20E0822F90E0FC01EE0FFF1FE2
:1053B000E40FF51F608171816115710531F0C6162A
:1053C000D70609F44C012F5FEECFF12CFFEF8F16BB
:1053D0009F0609F448C0F8014481F09026018F2D02
:1053E000411180E0F82FF170FF2EF801E5808681F1
:1053F0009B85992309F40CC1FF2009F409C1609031
:10540000CF037090D003E11012C0A10101C0440F7E
:105410008A94EAF7842B868380911103909112037A
:105420008615970520F47092120360921103C10152
:1054300002C0880F991F2A95E2F70197F80126818B
:105440002817190681F48091B7039091B80300974B
:1054500009F460C00E947E066816790608F05AC0FA
:1054600021E0F80124835F28FFEFAF1ABF0A095F2C
:105470001F4F28E0A216B10409F08ECF8B85882338
:1054800009F421C1552009F41EC10E948D06909394
:10549000B8038093B70380911403883010F591E02E
:1054A000980F9093140398E0FE013996DE0111964F
:1054B00001900D929A95E1F73CE0839FC001112481
:1054C0008B5E9C4F28E0FE013196DC0101900D922D
:1054D0002A95E1F72FEF3FEFFC0131872087D38634
:1054E000C28669960FB6F894DEBF0FBECDBFDF91BE
:1054F000CF911F910F91FF90EF90DF90CF90BF90D1
:10550000AF909F908F907F906F905F904F903F9063
:105510002F9008958091B5035091B603982FF0E035
:10552000E0E0851314C09093B503E017F10709F488
:105530009ACF90E0FC01EE0FFF1FE355FC4FB182C4
:10554000A0820196837099278093B6038CCF682E32
:10555000712CF301EE0FFF1FE355FC4F20813181C9
:1055600047E0429FD001439FB00D1124AB58BC4F80
:105570006D917C911197798F688F40E020E030E049
:10558000E32FF0E0EE0FFF1F688D798DE60FF71F18
:105590008080918081149104E1F0F8010190F08104
:1055A000E02DFF8BEE8B20E005C08616970609F4F0
:1055B0004F2D2F5FE22FF0E0EE0FFF1F6E897F89E6
:1055C000E60FF71F608171816115710571F73F5F0B
:1055D000D7CF4423D1F0F801231708F0FD0121E0D3
:1055E00024830E171F0721F49093B503F42E3BCFAD
:1055F000981305C0AE17BF0711F49F5F9370930116
:105600002F5F3F4F822F83708CCFF0E0E0E0F7CF29
:1056100090E0E1101FC0B10102C0660F771F2A950C
:10562000E2F79B01215031098217930731F444239B
:1056300009F447C0C5010E94F606C10101C0880FE8
:105640008A94EAF7982F9095F801868189238683BA
:10565000FE2C09CF9C01082C02C0359527950A9491
:10566000E2F7A90141705527BC01615071098623F9
:105670009723892B11F5452B01F1F8018281938144
:10568000892BC1F01B821C821D821E8249824A82A4
:105690000E948D068160582F9D838C83F801828142
:1056A00093818F83988729813A814B816D817E8197
:1056B0000E94A427F8011582C0CFF22FF170EF2EBF
:1056C000BCCFEF2CBACF9091B5038091B603981759
:1056D00031F00E947928552009F433CE02CF0E9480
:1056E0001B281092B8031092B7030E942407F3CF2F
:1056F00082E00E945C1507CECF93DF9300D000D0EC
:105700000F92CDB7DEB79093E9028093E80281153E
:1057100020E2920748F40F900F900F900F900F9097
:10572000DF91CF910C94F1188EEF89838A831B82CD
:105730000E948D068160782F9D838C8349815A81D8
:105740006B818D810F900F900F900F900F90DF91D4
:10575000CF910C9423290F931F93CF93DF938C0148
:10576000EB016EE872E08C2F0E94BB10892BA1F434
:105770008091D7039091D8030E949A0DDD27C657D8
:10578000DD4F8881F80110821882833009F148F4D6
:10579000813059F0823081F0DF91CF911F910F91CC
:1057A00008958430D1F08530B9F780918E029091C0
:1057B0008F02009789F306C0809190029091910228
:1057C000009799F3DF91CF911F910F910C947C2B4F
:1057D0008091920290919302F3CF809194029091E4
:1057E0009502009779F720918E0230918F02809177
:1057F00090029091910221153105D9F2009711F78D
:10580000C901E0CFCF93DF9300D000D00F92CDB786
:10581000DEB79093E9028093E802811520E29207B7
:1058200048F40F900F900F900F900F90DF91CF9151
:105830000C949B1A8EEF89838A8381E08B830E946C
:105840008D068160782F9D838C8349815A816B817D
:105850008D810F900F900F900F900F90DF91CF914F
:105860000C942329CF93DF93EC010E94022C8091AA
:10587000D7039091D8030E949A0DCE01DF91CF916A
:105880000C947C2B0F931F93CF93DF938C01862F67
:105890006EE872E00E94BB10892BC9F4C0918E02A1
:1058A000D0918F02209799F0F8018081833069F4BC
:1058B000CE010E94322CCE010E94322CCE01DF910B
:1058C000CF911F910F910C94322C8430B8F7DF9157
:1058D000CF911F910F9108950F931F93CF93DF9353
:1058E0008C01EB016EE872E08C2F0E94BB10892BBB
:1058F00009F064C0FE01FF27D8018C91E657FD4FE7
:105900008130D9F419969C911997992311F08083CD
:105910000CC01A969C919923D1F382E080838091E8
:105920009002909191020097D9F480918E0290910B
:105930008F02009709F442C013C08230E9F519962E
:105940008C91199781112DC01A968C9181110EC0DE
:1059500083E080838091920290919302009719F1E5
:10596000DF91CF911F910F910C94022C84E08083E2
:105970008091940290919502009791F780918E0208
:1059800090918F020097F9F00E94322C8091900242
:1059900090919102009721F780918E0290918F0251
:1059A000DFCF85E0808380918E0290918F020097F7
:1059B00029F00E94322CF0CF86E08083DF91CF91D6
:1059C0001F910F9108958091900290919102B1CF13
:1059D00090E080E00E94B236893E9E4F11F40C9414
:1059E0002E0F80E008951F920F920FB60F92112490
:1059F0002F933F934F935F936F937F938F939F93D7
:105A0000AF93BF93CF93DF93EF93FF93D091E900D0
:105A1000DF708091EC00C82FC17080FDC0E810924B
:105A2000E9008091F000877F8093F00078940E94D5
:105A3000C5151092E9008091F00088608093F00015
:105A4000CD2BCF70C093E900FF91EF91DF91CF9103
:105A5000BF91AF919F918F917F916F915F914F9186
:105A60003F912F910F900FBE0F901F9018951F928E
:105A70000F920FB60F9211242F933F934F935F9382
:105A80006F937F938F939F93AF93BF93EF93FF9306
:105A90008091E10082FF09C08091E20082FF05C091
:105AA0008091E1008B7F8093E1008091DA0080FF9C
:105AB00024C08091D80080FF20C08091DA008E7FC2
:105AC0008093DA008091D90080FF9DC080E189BD7C
:105AD00082E189BD09B400FEFDCF81E080935304CB
