:100000000C94F6040C942E050C942E050C942E05DD
:100010000C942E050C942E050C942E050C942E0594
:100020000C942E050C942E050C94451A0C948719EB
:100030000C9431220C942E050C942E050C942E0554
:100040000C942E050C942E050C942E050C942E0564
:100050000C942E050C94F0210C942E050C942E0576
:100060000C942E050C942E050C942E050C942E0544
:100070000C942E050C942E050C942E050C942E0534
:100080000C942E050C942E050C942E050C942E0524
:100090000C942E050C942E050C942E050C942E0514
:1000A0000C942E050C942E050C942E05DD0ADD0A09
:1000B0000D0B0D0BB20BFE0CFE0CFE0CD00B430C0B
:1000C000560C560CCE13E413EB13C415C4152314AD
:1000D0003414471488148D14B514D8140E15111542
:1000E0009317BA176F19BA176F19061829186F19CD
:1000F0002A193A19643214783C1E1E140A05FD3779
:100100007A585A000004E6D6B446020021011600CF
:100110000000742FE5A3E009CF02335D003D88891C
:10012000C65436C3174FE4E2A73DAC73831FB1E555
:1001300021EA73C5596CF951C8925CE0C544E26488
:1001400045E0304F8A516E191A6D3C28A2FDAB066E
:100150007C16BB5C1C2DE147FB30ECC75026402EC3
:100160003928342BBAA18BBC875D2A819D5E2FCFA5
:1001700026AA1AF76F9AC6E850FD5B4783A081D183
:10018000E835F5B6B98C4D93714D8A5B9199340A77
:100190005E6569A3359CC294038871BC49C1CE09D0
:1001A000A62955C0D15CB5EEA081162A11A096AD46
:1001B000812184C2F6D89876D0F2CB735EAC432A04
:1001C00072334586ADC1471FC10D435B80FE024AB5
:1001D0001BE925B06B02864CFD448CA7C7BDECDE45
:1001E0002CC1B6EECC2531CDE93DC7C106276E291D
:1001F000F9C75466904F11C4E16A05320854FF15DF
:100200006A68B67EA47C40B3B749FD71BCF1645AFC
:100210006045752BE3653FDEF2DF390F9040EE203D
:100220006F48FAC763958A0B8A7E87687A37A391ED
:10023000405DCA229C153056A0279E347790915875
:100240005E0FA1E05D1394DD45302506F78EB4B94D
:100250008152357C31906D1C32258F5A2EAF9E868F
:100260003F0A6EE4B1684FE841DC9DE688C1941E08
:10027000993570F4F77817C64A0324BCECCAF272B9
:10028000E26A8AFD7676EA99F2B6CCF95684B972BA
:1002900058237B79D0CD407A0D0B145C782B60B756
:1002A000242C2016EC7DE563E26BFCA44F73DECFBB
:1002B000FBDC79A9D6CEEFE2AECB5A19C94E401B72
:1002C000A46355E365C5D676438046D6CA335D74CC
:1002D000FDD1DE8EFF87E06C3BDD9540BA57D78BB2
:1002E00020D2FB4D89B9BBA2BFAFA627F6227ED98B
:1002F000A826F380E90B7321C587AFB527E968D835
:1003000084499CEB517E92C27673D644256ADDA562
:10031000675E5F670F368BFC36AB692067C2257955
:1003200055BE10C83C8A935315616D2A724465F717
:10033000E8FE5265EB2FC4CBF4D8860A0F73E2CBEC
:10034000515501E77A7D587F233F9D4859A98D007B
:100350000000354BAED5B80B19740001CF04D01393
:100360000000CC7A5FEEB1C467FB0200000000041D
:10037000595A05010980A101850319012AB7001501
:100380000126B700950175108100C0050C0901A177
:1003900001850419012AA002150126A00295017504
:1003A000108100C00660FF0961A1010962150026E5
:1003B000FF009520750881020963150026FF00954E
:1003C0002075089102C005010906A101050719E081
:1003D00029E7150025019508750181029501750829
:1003E00081010507190029FF150026FF00950675F4
:1003F00008810005081901290595057501910295E7
:100400000175039101C009025B00030100A0FA0914
:100410000400000103010100092111010001224033
:100420000007058103080001090401000203000020
:10043000000921110100012222000705820320008A
:100440000107050303200001090402000103000065
:100450000009211101000122320007058403200058
:10046000011201000200000008444B724D0001011E
:100470000203011C037600690061006C003A00660B
:100480000036003400630032006200330063000075
:100490000012034D006F006E006F00720061006972
:1004A000006C0000001C034B0069007300650072C3
:1004B000002000440065007300690067006E00734F
:1004C00000000004030904165C14001A000800155B
:1004D0000017001C0018000C00120013002A002B4B
:1004E0000004001600070009000A000B000D000EB2
:1004F000000F0033002800E1001D001B000600195A
:10050000000500110010003600370052000151E0D4
:1005100000E300E2002C002C0000002C0000002C66
:1005200000500051004F001E001F0020002100223B
:100530000023000000000000000000000000000197
:1005400000010001000100010001000100010001A3
:100550000001000100010001000100010001000193
:100560000001000100010001000100010001000183
:100570000001000100010001000100010001000173
:100580000001000100010001000100010001000163
:100590000000000100000001000100010001000155
:1005A0000001000100010001000100000000000046
:1005B0000000000000000001000100010001000136
:1005C0000001000100010001000100010001000123
:1005D0000001000100010001000100010001000113
:1005E0000001000100010001000100010001000103
:1005F00000010001000100010001000100010001F3
:1006000000010001000100010000000100000001E4
:1006100000010001000100010001000100010001D2
:1006200000010000000000000000000000000001C8
:1006300000010001000100010001000100010001B2
:1006400000010001000100010001000100010001A2
:100650000001000100010001000100010001000192
:100660000001000100010001000100010001000182
:100670000001000100010001000100010001000172
:100680000000000100000001000100010001000164
:100690000001000100010001000100000000000055
:1006A0000000000000000001000100C80254218782
:1006B00021000002000200C402542187210000032F
:1006C000000100C90254218721000004000200AE8D
:1006D0000254218721A12005000100CA025421876C
:1006E00021000006000200B002542187210000070B
:1006F000000200C60254218721000008000100CB3F
:100700000254218721000012000200CC02542187EC
:1007100021000013000200CE0254218721000014A2
:10072000000100D0025421872100001500000000C4
:10073000002420D6200000FFAA7F55402223252632
:1007400028292A2C2D2F3032333536383A3B3D3E7E
:100750004042434547494A4C4E5051535557595AC8
:100760005C5E6062646668696B6D6F7173757779E2
:100770007B7D7F81838587898A8C8E9092949698E1
:100780009A9C9E9FA1A3A5A7A8AAACAEAFB1B3B4F3
:10079000B6B8B9BBBCBEBFC1C2C3C5C6C7C9CACB48
:1007A000CCCDCED0D1D2D2D3D4D5D6D7D7D8D9D913
:1007B000DADADBDBDBDCDCDCDCDCDDDDDDDDDCDC7C
:1007C000DCDCDCDBDBDBDADAD9D9D8D7D7D6D5D499
:1007D000D3D2D2D1D0CECDCCCBCAC9C7C6C5C3C265
:1007E000C1BFBEBCBBB9B8B6B4B3B1AFAEACAAA8BA
:1007F000A7A5A3A19F9E9C9A98969492908E8C8A6E
:1008000089878583817F7D7B79777573716F6D6B48
:100810006968666462605E5C5A5957555351504E20
:100820004C4A4947454342403E3D3B3A38363533D2
:1008300032302F2D2C2A29282625232200000000C3
:1008400000000000000000000000000000000000A8
:100850000000000000000000000000000000000098
:100860007E0F00D4FFFFFFC70000007800000000EB
:10087000000000002A2B28000000000000000000FB
:100880000000000000000029000000002C1E3420A1
:10089000212224342627252E362D3738271E1F20C7
:1008A0002122232425263333362E37381F0405060C
:1008B0000708090A0B0C0D0E0F1011121314151650
:1008C0001718191A1B1C1D2F3130232D350405064E
:1008D0000708090A0B0C0D0E0F1011121314151630
:1008E0001718191A1B1C1D2F3130354C000101013E
:1008F00001010101010102020202020202020203DD
:1009000003030303030303040404040404040505AC
:10091000050505060606060607070707070808086F
:1009200008090909090A0A0A0B0B0B0C0C0C0D0D1E
:100930000D0E0E0E0F0F0F101011111112121313B6
:100940001414151516161717181819191A1A1B1B2F
:100950001C1D1D1E1E1F202021222223242425268B
:1009600026272829292A2B2C2D2D2E2F30313232C3
:10097000333435363738393A3B3C3D3E3F404142CF
:10098000434445464748494A4C4D4E4F50515354B5
:10099000555658595A5B5D5E5F6162646566686969
:1009A0006B6C6D6F7072737577787A7B7D7E8082E9
:1009B000838587888A8C8E8F91939596989A9C9E32
:1009C000A0A2A3A5A7A9ABADAFB1B3B5B7BABCBE42
:1009D000C0C2C4C6C9CBCDCFD1D4D6D8DBDDDFE20F
:1009E000E4E7E9EBEEF0F3F5F8FAFDFF11241FBEA2
:1009F000CFEFDAE0DEBFCDBF04B603FE18C08091B2
:100A0000090490910A04A0910B04B0910C04873062
:100A1000904BA740B04B59F41092090410920A046D
:100A200010920B0410920C04E0E0F8E3099511E039
:100A3000A0E0B1E0E0E3FBE602C005900D92A03932
:100A4000B107D9F724E0A0E9B1E001C01D92A930B7
:100A5000B207E1F70E944C0E0C9496350C940000FE
:100A6000A4E0B0E0E6E3F5E00C9439357C01DC016C
:100A700013964D915C91149711966C9111978C91EE
:100A80000E947F2381110C94480E61E0C7010E94EF
:100A900067308C01F7018281811106C0D70112965F
:100AA0008C9181113EC0F4C080910C0190910D0198
:100AB0000196A1F368EDC62E62E0D62EA12CB12CD2
:100AC0009924939480910C0190910D018A159B05B6
:100AD0002CF3F60186818823E9F081859285081739
:100AE000190739F48091D6029091D7020817190797
:100AF00089F0D6011F969C921F971C961C930E930B
:100B00001B97C6010E94F222C60106960E94AD22E2
:100B10001092D502BFEFAB1ABB0AE6E1CE0ED11C94
:100B2000D1CFC80182519F45409708F0CFC08FEFC9
:100B300093E00E94C4348111B5C05EEED52ED00E74
:100B40000BE712E0DD2071F00115F4E01F0709F456
:100B5000A9C0C8010E94C434811101C0DA940F5F9A
:100B60001F4FF0CF19821A821B821C82AA24AA94DA
:100B700068012FEFC21AD20AC8010E94C4348983C7
:100B80001A82882309F48EC0813009F07CC04801A4
:100B900082E0880E911CC6010E94C434B82E8A835C
:100BA000882309F47FC08FEF8B0D833060F46801D8
:100BB00093E0C90ED11CC4010E94C4348B838111FF
:100BC00062C08601D5CF8BEF8B0D833078F538016D
:100BD000A3E06A0E711CC4010E94C4348B8381118E
:100BE00002C06301EECF6801B4E0CB0ED11CC3019B
:100BF0000E94C4348C83882321F32B813C812130D3
:100C0000EFEF3E0718F0922F80E001C0C901F6E037
:100C1000BF1631F027E0B21631F00E94252DD1CF5A
:100C20000E94FF2CCECF0E94852CCBCF84E0B8163B
:100C300011F06401C6CFC4010E94C434B82E68010B
:100C400094E0C90ED11CC80103960E94C434BB2095
:100C500049F1882339F1282F30E021503109A29E33
:100C6000A001A39E500D11248B2D90E00197840FBD
:100C7000951F019708F4A5CFAFE9BFE01197F1F7F1
:100C800000C00000F6CFCE0101960E94982F99CFA8
:100C900000318FE5180709F005C781E00E94581C54
:100CA0000E94A41680919203877011F40C94480E50
:100CB000D70112968C91882309F4EAC78091FC0130
:100CC00082FFE6C782E00E94502AE2C70031BFE5FA
:100CD0001B0711F481E005C00131EFE51E07A1F407
:100CE00082E00E94651CDCCF6801F7E5DF1A2FEF78
:100CF000C216D10409F040F467ED73E08C2D0E9418
:100D0000C226892B09F4D5C6C80197558F3F910596
:100D100011F008F053C020910C0130910D012817FB
:100D2000390724F490930D0180930C01D70112969A
:100D30002C91129736E1389F5001399FB00C112445
:100D4000F501E852FD4F6F01208B12969C91868130
:100D5000992351F1128701878F5F86830E94252294
:100D6000D6011E969C938E931D9780919D03179696
:100D70008C9317979091D5028091FD01892B18963D
:100D80008C931897ED91FC911197309741F0549600
:100D90006D917C915597C50182529D4F0995109395
:100DA000D7020093D6020AC0882341F081898823A4
:100DB00029F0C50182529D4F0E94AD228091C90247
:100DC00080FFBFC00E9425226C01D70112968C9132
:100DD0008823D9F18091110182FF08C02EEA31E009
:100DE00040E0B60180E090E00E9404250B31BCE5B4
:100DF0001B0779F00C31ECE51E0789F00A31FCE5A0
:100E00001F07A1F480911101982F909590FB80F914
:100E100009C08091110181608093110107C0809108
:100E200011018E7F809311010E94C524C801905644
:100E3000811520E2920720F0905E8115904180F5A7
:100E400010922102109220027CC0013E110521F473
:100E5000809111018F7E06C0053E110531F480910D
:100E600011018F7D809311011BC0C801905681151F
:100E7000B0E29B0720F0905E8115904188F480914C
:100E8000110182FF5EC08091CB0281FD5AC02EEA23
:100E900031E040E0B60180E090E00E94042551C0BE
:100EA0008091110180FF4DC0D70112968C910832BC
:100EB000110538F40E311105B8F40430110578F439
:100EC0001CC00933110538F40D32110590F40B32B2
:100ED000110579F012C00436110559F00EC0909139
:100EE000C90294FD0AC0BAC19091C90293FD05C020
:100EF000B5C19091C90292FFB1C1882311F110923E
:100F0000210210922002033FBCE51B07D1F178F4C7
:100F1000083DFCE51F0761F1093D2CE5120709F4C6
:100F200051C0073D8CE5180709F057C01BC0053FAD
:100F30009CE51907B9F180F1063FBCE51B07E1F11B
:100F40004CC0033FFCE51F07E1F008F5083D8CE5C8
:100F5000180771F0093D9CE51907A1F1073DACE5C3
:100F60001A07B1F506E221EE41EE67ED7CE505C01A
:100F700007E225EE45EE68ED7CE5C7010E941223ED
:100F800091CE06E221EE40EE63EF7CE5F6CF053F21
:100F9000BCE51B0739F060F407E225EE44EE64EF90
:100FA0007CE5EBCF06E221EE42EE65EF7CE5E5CF96
:100FB000063FFCE51F0761F407E225EE46EE66EF0B
:100FC0007CE5DBCF08E221E045EE69ED7CE5D5CF9D
:100FD000F7012281222309F43BC21092D40203308C
:100FE000FDE51F0758F40A3F2CE5120780F4C801FD
:100FF00082509C45449708F0DEC109C001368DE55A
:10100000180729F0053A9DE5190709F0D4C10E9497
:101010008E299093FC018093FB010131ACE51A0706
:1010200009F4C9C008F043C00930ECE51E0709F413
:101030009EC008F505302CE5120709F488C080F43D
:1010400003309CE5190709F47BC008F07DC002302D
:10105000BCE51B0709F0F9C08091FB018160F3C07A
:101060000730ECE51E0709F47AC008F07CC08091D7
:10107000FB018061E8C00D302CE5120709F489C03E
:1010800058F40B309CE5190709F47BC008F07DC0CB
:101090008091FB01886071C00F30BCE51B0709F42B
:1010A00082C008F084C08091FB01877FCCC00D3FD7
:1010B000FCE51F0709F473C008F505318CE5180736
:1010C00009F487C068F40331ACE51A0709F477C066
:1010D00008F097C00E94A01C8091FB018F77B3C0DD
:1010E0000B3FECE51E07B9F108F056C00A3F2CE5AE
:1010F000120709F0AAC08091FC0141C001308DE5C2
:10110000180709F48AC058F40F3FACE51A0709F430
:101110005BC008F06AC08091FC01826030C001367B
:10112000EDE51E0709F47FC0053AFDE51F0709F448
:1011300084C002302DE5120709F087C060E06EC060
:101140008091FB0182607FC08091FB0116C080917D
:10115000FB01886078C08091FC0182604FC0809163
:10116000FB01806270C08091FB0180646CC00E94B2
:10117000A01C8091FB01806866C0846064C08160AF
:101180003DC08091FB018E7F5EC08091FB018D7F11
:101190005AC08091FB0116C08091FC0118C080915B
:1011A000FC018D7F2BC08091FB018F7E4CC0809114
:1011B000FB018F7D48C08091FB018F7B44C08091F3
:1011C000FB01877F8B7F3FC08091FC018D7F8E7FED
:1011D00015C08091FB0182FB222720F991E0922724
:1011E00090FB82F990FB83F92EC08091FC01982F2F
:1011F000909591708E7F892B90FB81F98093FC01F3
:1012000024C00E94A01C8091FB0187FB222720F9AB
:1012100091E0922790FB87F916C061E08EE090E0A4
:101220000E94D83412C08091FB0184FB222720F950
:1012300091E0922790FB84F906C08091FB01982FE2
:10124000909590FB80F98093FB018091FB01909138
:10125000FC010E9480290E94A01C24CD882309F44F
:10126000A3C02091FD0180919D03982F922B392FCF
:101270003D7F79F110922102109220023091C90233
:1012800031FD27C0F80143E0F695E7954A95E1F76F
:10129000EE71FF27E250FE4F98012F70332781E057
:1012A00090E002C0880F991F2A95E2F780959095EB
:1012B000208131818223932391838083A70160E081
:1012C000C8010E94E42480919D038D7F0E94212A01
:1012D00067C038E0F701AEEAB1E001900D923A95AF
:1012E000E1F71092B0011092B2011092B101409159
:1012F00020025091210204171507D1F53091C9023F
:1013000035FF36C04091110141FF02C036FF30C0A9
:1013100040911E0250911F02B601641B750B409153
:10132000C6025091C7026417750710F521FF08C067
:101330008091110180618093110182E00E943C2A1A
:101340008091FD0185FF08C080911101806280932A
:10135000110180E20E943C2A609111016695617042
:10136000A70180912002909121020E94E4249ACC4E
:10137000969591702091110190FB21F92093110114
:101380008D7F0E94212A1093210200932002D09287
:101390001F02C0921E02809111018460809311018E
:1013A00082E00E94502A7ECC970140E0B601C8013D
:1013B0000E94042577CC06312CE5120709F06AC09B
:1013C00021E08091FD01982F9A7A3091C80230FF78
:1013D00004C0482F447409F090E031FF04C0482F46
:1013E000417109F090E032FF04C0482F487809F0BD
:1013F00090E033FF02C0827261F42223A1F081E009
:10140000911101C080E080939201992331F065E34E
:1014100005C0222341F01092920169E28EE393E02D
:101420000E945A2212C080919201882311F085E314
:1014300001C089E2EEE3F3E09281891301C01282D8
:10144000319693E0E434F907B9F70E94B32A2ACC25
:101450000631ACE51A0709F4B4CF8091FD01827220
:101460000B3CACE51A0709F4F6C308F085C3063C4B
:10147000ECE51E0709F4DBC308F068C3033C2CE568
:10148000120709F4CAC308F052C3023CACE51A07BC
:1014900009F49EC3D70112968C918823C1F10A35B5
:1014A000BDE51B0779F158F40115FCE51F0789F02C
:1014B0000E3D2CE5120759F50E94AB2918C00C35DA
:1014C0008DE51807B9F000F1073AADE51A0779F094
:1014D0001EC00E94A01CBFEFE4E3FCE0B150E0405E
:1014E000F040E1F700C000000E94CC21DBCB0E945D
:1014F000B532D8CB8091FC0182FB882780F991E03E
:10150000892703C081E001C080E00E946D2AD701D5
:1015100016968D919C9117970097B9F4F7018281E7
:1015200000811181882349F0C8010E94AC1BD82E8C
:10153000682FC8010E941C1C04C0C8010E94E81B3F
:10154000D82EB8018D2D0E942F260E94F727182F24
:10155000092FD7011296BC9012971596CC90C29481
:101560003FE0C322809192038770B9F0BB20A9F0BD
:10157000892F807F803421F080E2810F883068F0ED
:101580008091FC0182FF09C082E00E94502A809174
:1015900092038770AA24A3948111A12C902E929477
:1015A0002FE09222892D90E08C30910508F026C220
:1015B000FC01EA5AFF4F0C942835902F9F70802F22
:1015C000807FD92E19F0D29490EFD922BB20A9F0B8
:1015D000DD2009F4F3C180E2810F883010F0111191
:1015E00004C08D2D0E94432A05C08091D502D82ABF
:1015F000D092D5020E94B32AE1C1812F0E94CB1C58
:10160000DD2009F4FBC180E2810F883068F11123ED
:1016100059F18D2D0E94352A2AC0902F9F70802F5E
:10162000807FD92E803219F0D29480EFD8221123F6
:1016300021F0113009F468C073C08091FC0182FD73
:1016400019C0BB2059F0DD2029F08D2D0E94432ABE
:101650000E94B32A80E00E94FE1CD0C180E00E945C
:10166000CB1CDD2009F4CAC18D2D0E943C2A0E94AA
:10167000B32AC4C1BB2011F1CC20E1F0B1E0CB1200
:1016800006C080919D038D290E94212AB7C18091B7
:10169000CA02823078F0C8120DC00E94162A9091BA
:1016A00093018D2D892B8913809393018D2D0E9499
:1016B000C41CA4C180919D038D29F9CFCC20F1F0E9
:1016C0008091CA02E1E0CE1214C0823008F496C1C3
:1016D0008091FD018D2109F491C10E94162A9091FB
:1016E00093018D2D80958923891751F08093930163
:1016F00007C0823018F0C81609F480C10E94162A6B
:101700008D2D0E94BD1C7AC18091D002BB2021F09A
:101710008C1508F473C1CACFC81608F06FC1F0CF9A
:10172000BB20E9F0CC2011F220E0D7014C911196BA
:101730005C91119712966C91129713967C91139766
:1017400014968C910E9444308091CB0281FD36C169
:10175000F701858180FF32C18F708583A7CFC110CB
:1017600036C1CECF802F86958695837019F0813053
:1017700061F044C1BB2021F0812F902F937002C0F3
:1017800080E090E00E948A2241C1BB2021F0812F9D
:10179000902F937002C080E090E00E94742236C1C6
:1017A000802F8370A1F5B1102DC1412F4295469530
:1017B0004770440F440F212F2F7030E0C901042ED1
:1017C00001C0880F0A94EAF714FF08C02FE030E048
:1017D00001C0220F4A95EAF7209501C020E0302F82
:1017E000369536953370323069F040F440919E035F
:1017F000313019F0822B842302C0842B822B0E946B
:10180000711C00C1282B80919E038227F8CFBB203A
:1018100019F0802F817001C08695882309F4F2C0E9
:10182000412F429546954770440F440F212F2F704A
:1018300030E0C901042E01C0880F0A94EAF714FFB2
:1018400008C02FE030E001C0220F4A95EAF720954A
:1018500001C020E0302F369536953370323051F08C
:1018600070F44091DC01313019F0822B842308C0E0
:10187000842B05C0282B8091DC01822701C0822B9C
:101880000E94511CBFC0F02FFF70DF2EBB2039F02B
:101890008F2F0E94651C812F0E94C41CB3C0812F12
:1018A0000E94BD1C8D2D0E94581CACC0123F11F12E
:1018B00028F4103F41F0113FA9F17CC0133F01F122
:1018C000143F61F177C08091D002BB2021F0C8168F
:1018D00008F094C003C08C1508F490C0202F2F711D
:1018E00081E090E001C0880F2A95EAF79091DC0131
:1018F00089270FC0802F8F71BB2009F463C07AC085
:10190000BB2051F081E0902F9F7101C0880F9A9504
:10191000EAF70E94511C72C080E0FBCF8091FC016D
:1019200082FD06C0802F8F71BB2009F463C04AC0BE
:101930008091CA02823040F1BB20C1F090919203A5
:101940009770943039F40E94492A802F8F710E9439
:10195000581C53C0C81608F050C0202F2F71D22E2B
:10196000822F0E94651C63E08D2D07C0C81640F0D1
:101970000E94492A64E0802F8F710E94822A3DC014
:1019800081E00E94502A39C0BB2051F0802F8F7116
:10199000D82E0E94651C63E08D2D0E94822A2EC0E5
:1019A00081E00E94502A91E09C1540F582E00E945F
:1019B000502A24C0BB2049F0CC2011F0812F4BCEFF
:1019C000802F8F710E94651C19C0CC2089F01933BB
:1019D00029F48091CE029091CF0204C08091CC0274
:1019E0009091CD020E94F924812F0E94CB1C06C049
:1019F000802F8F710E94581C01C0A12C88EF890D87
:101A0000843020F40E94A0220E94922F812F902FD8
:101A10000E94761C811105C01092950110929401CC
:101A200025C0BB2019F0C110F7CF20C0C110F4CFE2
:101A300020E0D7014C9111965C91119712966C9110
:101A4000129713967C91139714968C910E944430B0
:101A50008091CB0283FFE0CF80919401909195011A
:101A60000297D1F6812F0E944F1DD6CFAA20A9F050
:101A70008091920380FD11C0F701128285958595B2
:101A800085950E94651CC7010E94300580919203D4
:101A90008595859585950E94581C60E0C7010E9438
:101AA0006730F6C001319FE5190709F01DC982E0D2
:101AB000F5C886E18C9DF0018D9DF00D1124E85252
:101AC000FD4F86818130E1F48091D7039091D80356
:101AD000892B09F419C98091D9039091DA03892BD4
:101AE00009F412C98091DB039091DC03892B09F082
:101AF0000BC98091DD039091DE03892B59F004C955
:101B0000823009F001C98091DB039091DC03892BBD
:101B100009F4FAC826E12C9DC0012D9D900D1124D9
:101B200088529D4FFC01108A0E94F222EDC8043CAD
:101B3000BCE51B0709F476C0053CECE51E0709F07F
:101B4000A9CC49E453E363E573E38EC0083CFCE5AC
:101B50001F0709F476C008F46FC0093C9CE519071B
:101B600009F474C00A3CACE51A0709F093CC42E2D0
:101B700053E365E173E378C0003DBCE51B0709F45E
:101B80007EC0A0F40D3CFCE51F0709F470C008F40A
:101B900067C00E3C8CE5180709F46EC00F3C9CE54D
:101BA000190709F077CC68E086E06EC0043DACE52B
:101BB0001A0709F467C008F475C8053DECE51E076F
:101BC00009F470C80D35FDE51F0709F46BC862CC38
:101BD0008091CE0380FF1BC08E7F8093CE036091E7
:101BE000CE037091CF038091D0039091D1030E94D6
:101BF00070331092A9032FEF80E792E021508040CC
:101C00009040E1F700C000000E94672E4BC8816041
:101C10008093CE0361E086952CC042EE53E36CEED8
:101C200073E322C04CEE53E362EE73E31DC043E561
:101C300053E369E473E318C04FE253E36CE373E3E7
:101C400013C04CE353E36FE273E30EC045E153E38B
:101C500062E273E309C043E853E365E973E304C058
:101C600045E953E363E873E30E944A2E1BC861E031
:101C700081E00E94A73316C865E082E005C06EE0EF
:101C800089E002C068E18FE00E94362E0C94520673
:101C90002496EEE00C945535A4E3B0E0E2E5FEE0D6
:101CA0000C94353585B7806885BF85B7806885BF5A
:101CB00084B7877F84BF0FB6F894A89580916000A1
:101CC000886180936000109260000FBE90E080E811
:101CD0000FB6F89480936100909361000FBE87ED7A
:101CE00096E290939101809390010E944C2C0E9467
:101CF000082C0E94C2250E94CB190E94EA198091EB
:101D0000E20084608093E20078948091DB01882374
:101D1000A1F01091E9001F709091EC00892F817063
:101D200090FD80E8182B1092E9008091E80083FD77
:101D30000E94B0161F701093E90082E084BD93E00A
:101D400095BD9AEF97BD80936E000E941D2E811164
:101D500002C00E940D2E06E211E0ABE2EA2EA1E0E5
:101D6000FA2ED8018D918D018F3F11F00E941C2712
:101D7000E016F106B1F70BE211E0F7E3EF2EF1E028
:101D8000FF2EF80181918F018F3F11F00E941C27D7
:101D9000E016F106B1F78AE0EBEBF1E0DF01282F66
:101DA0001D922A95E9F7E6E9F1E0DF011D928A9597
:101DB000E9F70E949F29811102C00E94AB2982E0AD
:101DC00090E00E94C4348093A3010E948E299093D6
:101DD000FC018093FB010E943327EFE3FCE931977C
:101DE000F1F700C000000E9433278091BB0180FF03
:101DF00008C06FEF7FEF80E090E00E94F6340E9411
:101E0000CC2183E090E00E94C4340E94711C809138
:101E1000DC010E94FF32849A8C9A8091A00181118A
:101E200033C00E949F29811104C00E94AB290E94E7
:101E3000F73388E090E00E94CC346093CE03709337
:101E4000CF038093D0039093D1036E7F71F40E94EF
:101E5000F73388E090E00E94CC346093CE03709317
:101E6000CF038093D0039093D1030E945D331092EF
:101E7000A9038091CE0380FF04C060E086950E9494
:101E8000A73381E08093A001849A819A809A8C9AEA
:101E900080E091E09093330380933203E5EC2E2EA3
:101EA000E1E03E2E8E010F5F1F4F8091DB018530F8
:101EB00009F07CC0DD24D39460E1E62E72E1F72EB8
:101EC0008091DB01853009F05AC08091DB018430BC
:101ED00009F443C080E00E94922F1092A9038091E0
:101EE000A201811116C0D092A2018091CE03982F39
:101EF00091709093A1018E7F8093CE03FFEF20E736
:101F000032E0F15020403040E1F700C000000E9474
:101F1000672E1092360388E190E0A0E40FB6F894A3
:101F2000A895809360000FBEA093600083B7817F67
:101F3000846083BF83B7816083BF7894889583B7BB
:101F40008E7F83BF0FB6F894A8958091600088615A
:101F500080936000109260000FBE8091D1018823B1
:101F600009F4AECF0E943327EBEBF1E08191919120
:101F7000892B09F00DC62E163F06C1F7A1CF0E948E
:101F8000A01C0E94A0220E94922F1092A201809178
:101F9000A101882349F08091CE0381608093CE0314
:101FA00060E086950E94A7330E94512E0E9433273D
:101FB000882359F08FB7F894409137035091380334
:101FC0006091390370913A038FBF5BEBA52E51E00E
:101FD000B52EE4EAF1E0D501E12CF12C7E2D2D9116
:101FE0003D918191919182279327009779F160E04B
:101FF000CC24C394D12CAC014C215D21452B09F19B
:102000006BA77CA72C213D2181E0232B09F480E0E4
:102010008DA70E9425228160782F9FA78EA74BA5B0
:102020005CA56DA58FA50E947530F701EE0FFF1F0F
:10203000EC55FE4F80819181C826D926D182C0827D
:102040001CC06F5FCC0CDD1C6C30A9F62FEFE21AC0
:10205000F20A35E0E316F10409F68FEF88AB89AB9D
:102060001AAA0E9425228160782F9CAB8BAB48A9CD
:1020700059A96AA98CA90E94753080910C01909190
:102080000D01019669F1712C66E1662E20C0689EF3
:10209000F001699EF00D1124E852FD4FC288D388EB
:1020A000C114D10421F4C090C602D090C702689E2A
:1020B0004001699E900C1124C40188529D4F7C01FF
:1020C000DC0116968C91169781110FC07394872DA1
:1020D00090E020910C0130910D0128173907BCF6D2
:1020E00080911201811113C03AC01D968D919C916F
:1020F0001E970E941622C816D90640F7C7010E94F3
:10210000F222C40182529D4F0E94AD22DFCF809106
:10211000AC029091AD02009711F10E94162220911D
:1021200022023091230228173907C8F49091AA029D
:102130008091AB02981759F00E942C241092230230
:10214000109222021092AD021092AC0208C00E94BE
:10215000BC231092AD021092AC020E940C2480911C
:10216000C90280FF1EC08091110182FF1AC00E9427
:10217000252220911E0230911F02AC01421B530BFD
:1021800020910F01309110014217530750F02EEAB1
:1021900031E041E0BC0180912002909121020E9437
:1021A00004258091A903882309F45DC08091A803C8
:1021B000E091CE03E695E81BE093A403823059F446
:1021C000F0E0E650FF4FE491EE2EF12C5FE9C52ED2
:1021D0005BE2D52E23C0863059F4F0E0E950FF4F82
:1021E000E491EE2EF12C4FE8C42E4BE2D42E16C013
:1021F000893061F4E695F0E0EC50FF4FE491EE2E6B
:10220000F12C3DE9C32E3EE2D32E08C090EDE92E1D
:1022100097E0F92E2EE8C22E2BE2D22E8091A50354
:10222000882361F01092A5030E9425229093A303B6
:102230008093A2031092A7031092A6030E94252266
:10224000E091A203F091A3038E1B9F0B8F3F9F474A
:1022500050F4EE0EFF1EF092A303E092A20382EA76
:1022600093E0F60109950E94A0229091B60189178A
:1022700021F08093B6010E94922F8091DB0184307F
:1022800009F013CE83E08093E9008091E80082FF9B
:102290000CCE8091E80085FF24C00E941C1B811198
:1022A0001EC080E2E82EF12C9E012F5F3F4F690196
:1022B00009C08091F100D6018D936D01B1E0EB1A58
:1022C000F10869F08091E80085FDF3CF8091E80086
:1022D0008B778093E8000E941C1B882399F391E080
:1022E00001C090E08091E8008B778093E80099230B
:1022F00009F4DBCDE090F901F090FA018981E11455
:10230000F10461F08E3F09F03FC48A81833008F404
:1023100039C28550833008F037C434C28B3009F499
:102320001BC280F5853009F488C0B0F4823009F40E
:1023300045C030F4813009F025C41A8289E0E6C234
:10234000833009F46BC0843009F01CC44C816B816C
:102350008A810E94DA2B6FC0873009F47CC008F4B0
:1023600077C0883009F4B9C0893009F00BC4609196
:10237000CE037091CF038091D0039091D1030E943E
:10238000703302C4803109F429C160F48D3009F43E
:10239000C7C008F4C3C08E3009F4C6C08F3009F43A
:1023A000EEC0F0C3823109F41EC108F41AC18331B2
:1023B00009F443C18E3F09F4E5C1E4C38A81823048
:1023C00009F4FCC3833089F0813009F0DBC32FB7F7
:1023D000F8948091370390913803A0913903B0911C
:1023E0003A032FBFBB83AC8326C08091F501909147
:1023F000F601892B09F4C8C3FE013196CE010B9674
:10240000D5012C9111963C91B2E0AB0EB11C3283F8
:1024100023833296E817F90799F7B6C38A81823089
:1024200009F0B0C36B817C818D819E810E942E3525
:102430000E94E92DA9C39D83C8C32D813E81322707
:10244000232732274C816B818A810E94B32B9CC346
:102450000E944C2699C38A818138B1F050F48038AB
:1024600009F092C320E04B816091D0038091CF03AB
:1024700031C0823859F1833809F086C320E0409199
:10248000D1036C818B8126C060E08B810E94A733D1
:102490009B818091CE03911111C08E7F8093CE03DA
:1024A0001092A903EFEFF0E722E0E150F040204066
:1024B000E1F700C000000E94672E66C38160809330
:1024C000CE0360E086950E94A7335EC38B81809324
:1024D000D2035AC30E94D82E57C38A81813899F0FB
:1024E00030F4803809F050C38091D1030FC2823894
:1024F00091F0833809F048C38091CF038B8380919A
:10250000D0038C8341C38091CE0380FF02C08695A7
:10251000FDC180E0FBC18091D203F8C180E1B0C26F
:1025200081E08A8385E8F2C1EA80FB80FE24EF2403
:10253000FE24AC80B12C3DE1A316B10408F024C305
:102540006801C70185589D4F9601201B310B2A1544
:102550003B0508F019C345E8E41641E0F40630F401
:102560000E94C434D60114968C9302C0F6011482E2
:10257000FFEFEF1AFF0A2FEFC21AD20AE2CF8091C3
:10258000F5019091F601892B09F4FEC2EA80FB80E7
:10259000FE24EF24FE24CC80D12C3DE1C316D104CF
:1025A00008F0F2C25801C70185589D4F9501201BC4
:1025B000310B2C153D0508F0E7C245E8E41641E073
:1025C000F40628F4D50114966C910E94D834BFEF1C
:1025D000EB1AFB0AEFEFAE1ABE0AE5CF0E941F26E8
:1025E000D3C284E04DC2EA80FB80FE24EF24FE24A7
:1025F000AC80B12CFDE1AF16B10408F0C5C2680192
:10260000C70187969601201B310B2A153B0508F060
:10261000BBC220EEE21621E0F20630F40E94C43480
:10262000D60114968C9302C0F6011482FFEFEF1AC4
:10263000FF0A2FEFC21AD20AE3CFEA80FB80FE2402
:10264000EF24FE24AC80B12C3DE1A316B10408F0C8
:102650009BC240EEE41641E0F40608F095C280EE1D
:1026600091E08E199F098A159B0508F48DC23701E8
:1026700087E2680E711C8091F5019091F601892B1B
:1026800011F0680160C0E0FE0FC0C70186960E948D
:10269000C43490E0982F88272D81822B81159C458A
:1026A00031F48FEF8D8303C0C12CD12C03C0CC2417
:1026B000C394D12CC5018E0D9F1D450180FF1BC009
:1026C000B1E08B1A9108E5E04E2E512C4C0E5D1EA8
:1026D000480C591CC3018A0D9B1D0E94C434F20191
:1026E000208130E0322F2227282B21153C4519F478
:1026F0008FEFD2018C93F801EC0DFD1D2FEFCF0170
:10270000801B910B8815990508F0BBCF848190E060
:10271000982F88273581832B81159C4511F42483BC
:1027200025833296ECCFE0EEEE16E1E0FE0628F4CB
:10273000D60114966C910E94D834BFEFEB1AFB0AB5
:10274000EFEFCE1ADE0AC70187969601201B310BE8
:102750002A153B0540F318C28091F5019091F601CE
:10276000892B09F411C2C8010E94791BFFEF21EEE9
:1027700034E0F15020403040E1F700C000000E94FA
:10278000CC2102C2EA818E2F90E08E30910508F0B4
:10279000FBC1FC01EE59FF4F0C94283588E0EEE1B7
:1027A000F1E0DE01919601900D928A95E1F780E2C9
:1027B000D8011D928A95E9F785E0898388E0FE01BA
:1027C000B196DE011596B3C184E7898382E08A83DE
:1027D0001B821C82D9C18C8190E0982F88272B8185
:1027E000820F911D092E000CAA0BBB0B65E0880F10
:1027F000991FAA1FBB1F6A95D1F7AC01BD01405EAE
:102800005F4F6F4F7F4F481759076A077B0708F4E0
:10281000BBC18437E2E09E07A105B10508F0B4C151
:102820004537F2E05F076105710520F044E752E0AB
:1028300060E070E0481B590BBC0162507F4FC8013B
:102840000E94AB34A1C140E250E06FEF70E0C801DC
:102850000E948F358091F5018983EA821B821C8258
:1028600081E08D838BE0B1C181E090E09093FA012B
:102870008093F90182E390E09093BA018093B901CB
:102880000E9425229093B8018093B7017DC1EF2863
:10289000A9F1F090BE01F3FA882780F9F090BB010E
:1028A000F8228091B7019091B8010E9416228536D6
:1028B0009105F0F0FF20E1F00E9425229093B801ED
:1028C0008093B7018091B9019091BA0101979093DB
:1028D000BA018093B901892B89F41092FA01109200
:1028E000F90181E090E09093F6018093F50106C034
:1028F00082E390E09093BA018093B9018091F50151
:1029000089838091F9018A838091B9018B833CC1CD
:102910001092F6011092F50137C1EB80FC8040E285
:1029200050E06FEF70E0C8010E948F3527EA36E073
:10293000A7E3B7E080E090E0AC014E5F5F4F41322B
:10294000510508F021C1F90165917491E616F70669
:1029500030F4F801E80FF91F71836083CA01245F26
:102960003F4FA217B30741F70FC12B813C8187EA84
:1029700096E0FC01459154914217530731F00C96B3
:1029800047E087339407A9F7FDC0009709F4FAC020
:10299000FC013696259134912115310509F4F2C0D8
:1029A0004FE150E0BE016E5F7F4FF9010995EBC02A
:1029B0002B813C8187E397E047EAE42E46E0F42E42
:1029C000F701459154914217530739F0FCE0EF0E9F
:1029D000F11C8E159F05A1F7D5C0E114F10409F48F
:1029E000D1C0F7013896259134912115310509F4AC
:1029F000C9C04CE150E0BE016B5F7F4FC701F901D8
:102A00000995009709F0BFC0F7013A968591949116
:102A1000009711F0FC01099580E0B5C00E94E925FE
:102A2000B3C08B81823071F1E8F4882311F18130D9
:102A300009F0AAC08C819AE0F92E6E01B1E2CB0EAA
:102A4000D11CF6012F2D11922A95E9F7B6010E94AB
:102A5000C2268983F601DE01129601900D92FA9446
:102A6000E1F792C0833009F445C0843009F464C0B2
:102A70008BC080E2D8011D928A95E9F784E08983B2
:102A80008A8382C0FC808AE0FE013596DE01919641
:102A900001900D928A95E1F789A19AA10E94D92D02
:102AA0009AA389A38BA19CA10E94D92D9CA38BA33F
:102AB0008DA19EA10E94D92D9EA38DA38FA198A523
:102AC0000E94D92D98A78FA333E03F1570F04AE0FC
:102AD000F49EB0011124655D7D4F4AE050E0CE01C7
:102AE00081960E94FC3480E001C08FEF89830E94B0
:102AF0004C2C4AC06C81CE0181962AE0DC011D92EB
:102B00002A95E9F7643060F4BAE06B9FB0011124B4
:102B10006D5A7D4F4AE050E00E94B43480E001C01D
:102B20008FEF89838AE0FE01B196DE011296019053
:102B30000D928A95E1F728C0FC808AE0FE01359667
:102B4000DE01919601900D928A95E1F789A59AA5EB
:102B50000E94D92D9AA789A7E3E0EF1570F0FAE05B
:102B6000FF9EB00111246D5A7D4F4AE050E0CE0126
:102B700081960E94FC3480E001C08FEF89830E941F
:102B8000082C02C08FEF8983C8010E94791B8DC970
:102B9000E9BCF9BC09B400FEFDCF8091D8008F7D5F
:102BA0008093D8008091E00082608093E000809163
:102BB000E00081FDFCCF0E94A01C82C986E290E06B
:102BC0000E94C4341B821C821D828E83DDCF8091C3
:102BD000D30187FF11C08091E80082FD05C080917C
:102BE000DB018111F8CF11C08091E8008B770BC019
:102BF0008091DB01882349F08091E80080FFF8CFC5
:102C00008091E8008E778093E8000895982F9730A0
:102C100068F59093E900981739F07091EC002091D5
:102C2000ED005091F00003C0242F762F50E021FDDD
:102C300002C09F5FECCF3091EB003E7F3093EB0002
:102C40003091ED003D7F3093ED003091EB0031602D
:102C50003093EB007093EC002093ED005093F00064
:102C60002091EE0027FDE5CF80E008958F708093DE
:102C7000E90081E008952091D9013091DA01261709
:102C8000370748F06115710539F42091E8002E7777
:102C90002093E80001C0B901FC0120E06115710535
:102CA00079F18091DB018823F1F18530F1F1809198
:102CB000E80083FD3CC08091E80082FD2EC0809139
:102CC000E80080FFEBCF2091F3008091F20090E0CC
:102CD000922B6115710551F08830910538F42191DE
:102CE0002093F100615071090196F3CF21E008971C
:102CF00009F020E08091E8008E778093E800CECF45
:102D00002111CFCF0AC08091DB01882361F085308B
:102D100061F08091E80083FD0AC08091E80082FFA5
:102D2000F2CF80E0089582E0089583E0089581E085
:102D300008950895BC0184E00E94A2210895BC0179
:102D400083E00E94A22108958091DC01982F967063
:102D5000963011F4886001C0877F0E94511C08954D
:102D6000AAE2B0E0E6EBF6E10C944435E3EDF1E0E5
:102D70008BED91E02091F10021938E179F07D1F701
:102D80008091D401833009F463C030F4813071F054
:102D9000823009F49DC0B4C08A3009F489C08B30F8
:102DA00009F46EC0893009F0ABC020C08091D30116
:102DB000813A09F0A5C08091E800877F8093E80000
:102DC0008091D7019091D801892B21F468E088EC9B
:102DD00091E003C060E080E090E070E00E943B166C
:102DE0008091E8008B778093E8008AC08091D301BE
:102DF000813209F085C08091D7019091D801009768
:102E000019F0029709F07CC08091E800877F8093D9
:102E1000E8008091E80082FD05C08091DB0181110E
:102E2000F8CF6EC02091F3008091F20090E0922BD9
:102E3000029731F48091F100813011F0863021F455
:102E40008091F1008093C7018091E8008B7754C096
:102E50008091D301813A09F053C08091D7019091BC
:102E6000D801892B09F04CC08091E800877F8093BE
:102E7000E8008091E80080FFFCCF80910E0137C010
:102E80008091D3018132E1F58091D7019091D801F1
:102E9000892BB1F58091E800877F8093E8000E943C
:102EA000E7158091D50180930E010E94A01C28C0D7
:102EB0008091D301813221F58091E800877F809352
:102EC000E8000E94E7158091D6018093C60118C0E2
:102ED0008091D301813AA1F48091E800877F8093AB
:102EE000E8008091E80080FFFCCF8091C6018093CC
:102EF000F1008091E8008E778093E8000E94E7154A
:102F00008091E80083FFEBC18091D3019091D401BF
:102F1000492F50E04A30510508F0E1C1FA01E0596B
:102F2000FF4F0C942835803821F0823809F0D7C142
:102F300008C08091D0019091D101992389F08260DD
:102F40000FC08091D7018F70873008F0C8C180937F
:102F5000E9008091EB0085FB882780F91092E90059
:102F60009091E800977F9093E8008093F100109291
:102F7000F1007CC1282F2D7F09F0B1C1882319F001
:102F8000823061F0ACC18091D501813009F0A7C1D8
:102F9000933009F080E08093D1012EC08091D5015B
:102FA00081112AC08091D7018F702FEF280F263012
:102FB00008F095C18093E9002091EB0020FF1CC030
:102FC000933021F48091EB00806214C09091EB006B
:102FD00090619093EB0021E030E0A90102C0440F22
:102FE000551F8A95E2F74093EA001092EA0080911B
:102FF000EB0088608093EB001092E9008091E8007C
:10300000877F8093E8000E94E71569C1811167C13D
:103010001091D5011F778091E3008078812B8093F8
:10302000E3008091E800877F8093E8000E94E71525
:103030008091E80080FFFCCF8091E300806880935E
:10304000E300111102C082E001C083E08093DB0144
:1030500046C18058823008F042C12091D50130919C
:10306000D6012C3D53E0350779F583E08A838AE267
:1030700089834FB7F894DE01139620E03EE051E2D9
:10308000E32FF0E050935700E49120FF03C0E29556
:10309000EF703F5FEF708E2F90E0EA3010F0C79630
:1030A00001C0C0968D939D932F5F243149F74FBF88
:1030B0008091E800877F8093E8006AE270E0CE01AB
:1030C00001960E943B16C0C08091D7019091D80113
:1030D000432F552743305105B1F068F44130510575
:1030E00009F40CC14230510509F0F9C08BE590E0BC
:1030F000E6E0F4E057C04132510589F14232510512
:1031000009F43CC0ECC0C901992781309105B9F0A0
:1031100070F082309105D9F0039709F0E0C0E3E741
:10312000F4E0E4918E2F90E0E3E7F4E038C0E3ECC4
:10313000F4E0E4918E2F90E0E3ECF4E030C0E5EAB7
:10314000F4E0E4918E2F90E0E5EAF4E028C0E1E9B4
:10315000F4E0E4918E2F90E0E1E9F4E020C08330C8
:10316000910508F0BCC0880F991FFC01E05CFE4F80
:103170000190F081E02D89E090E014C0833091054A
:1031800008F0ADC0FC01EE0FFF1FE65CFE4F0190A2
:10319000F081E02DDC01A95CBE4F8C9190E000979E
:1031A00009F49DC02091E800277F2093E80020913A
:1031B000D9013091DA012817390708F4C90140E034
:1031C000009789F12091DB01222309F43DC02530CD
:1031D000D9F12091E80023FD37C02091E80022FDBD
:1031E0002FC02091E80020FFEBCF4091F300209109
:1031F000F20030E0342B009759F02830310540F4CC
:1032000044914093F100319601972F5F3F4FF3CFE8
:1032100041E02830310509F040E02091E8002E77A8
:103220002093E800CDCF4111CDCF0AC08091DB01C2
:10323000882351F0853041F08091E80083FD04C07F
:103240008091E80082FFF2CF8091E8008B77809335
:10325000E80045C0803809F042C08091E800877FCF
:103260008093E8008091D2018093F1008091E80082
:103270008E77C7CE811133C08091D5019091D60150
:103280009927029764F58091E800877F8093E80092
:103290001091D5011093D2010E94E715111106C0BB
:1032A0008091E30087FD02C081E001C084E080934B
:1032B000DB0142E061EC81E00E94061642E261EC33
:1032C00084E00E94061642E261EC82E00E9406164B
:1032D00042E260EC83E00E9406168091DB0180915F
:1032E000E80083FF10C08091E800877F8093E800AA
:1032F0008091EB0080628093EB0005C082E190E05A
:10330000E1E6F4E04FCFAA96E3E00C9460351F921B
:103310000F920FB60F9211242F933F934F935F9309
:103320006F937F938F939F93AF93BF93CF93DF93CD
:10333000EF93FF93C091E900CF708091EC00D82FFC
:10334000D17080FDD0E81092E9008091F000877F75
:103350008093F00078940E94B0161092E90080915A
:10336000F00088608093F000CD2BCF70C093E9000F
:10337000FF91EF91DF91CF91BF91AF919F918F918D
:103380007F916F915F914F913F912F910F900FBE61
:103390000F901F901895E8EDF0E080818E7F80837C
:1033A0001092E2001092DA001092E100A0EEB0E07C
:1033B0008C9181608C9380818F77808319BCA7ED7D
:1033C000B0E08C918E7F8C9380818F7E8083109271
:1033D000C5010895A0E0B0E0E0EFF9E10C943F35BD
:1033E000C8EDD0E088818F7E8883E7EDF0E08081B2
:1033F0008160808384E082BF81E08093C501888101
:103400008E7F888302EE10E0F80110821092DA00BD
:1034100081EEC82ED12CF601108288818F778883A7
:1034200088818068888388818F7D888319BC109209
:10343000DB011092D2011092D1011092D00190EED6
:10344000E92EF12CF70180818B7F80838881816058
:10345000888342E060E080E00E940616F6018081E9
:103460008E7F8083F8018081816080838081886085
:103470008083F70180818E7F80838881806188834B
:10348000CDB7DEB7E8E00C945B351F920F920FB614
:103490000F9211242F933F934F935F936F937F93DA
:1034A0008F939F93AF93BF93EF93FF938091E1002E
:1034B00082FF09C08091E20082FF05C08091E10097
:1034C0008B7F8093E1008091DA0080FF2AC0809199
:1034D000D80080FF26C08091DA008E7F8093DA00CA
:1034E0008091D90080FF18C080E189BD82E189BD4B
:1034F00009B400FEFDCF81E08093DB018091C5011E
:1035000081110FC00E94CB190E94EA198091E2003C
:1035100084608093E20005C019BC1092DB01109218
:10352000C5018091E10080FF17C08091E20080FF1B
:1035300013C08091E2008E7F8093E2008091E200D0
:1035400080618093E2008091D80080628093D800EF
:1035500019BC85E08093DB018091E10084FF30C0DD
:103560008091E20084FF2CC080E189BD82E189BDA9
:1035700009B400FEFDCF8091D8008F7D8093D800E4
:103580008091E1008F7E8093E1008091E2008F7E48
:103590008093E2008091E20081608093E20080915C
:1035A000D201882311F084E007C08091E30087FDF9
:1035B00002C081E001C083E08093DB018091DB01E8
:1035C0008091E10083FF27C08091E20083FF23C048
:1035D0008091E100877F8093E10082E08093DB01AE
:1035E0001092D2018091E1008E7F8093E100809162
:1035F000E2008E7F8093E2008091E2008061809300
:10360000E20042E060E080E00E9406168091F00057
:1036100088608093F000FF91EF91BF91AF919F91EF
:103620008F917F916F915F914F913F912F910F906B
:103630000FBE0F901F9018952091E4003091E50087
:1036400095E64091EC00842F817040FF23C080916B
:10365000E80080FD1DC08091DB01882399F0853052
:1036600099F08091EB0085FD11C04091E4005091EC
:10367000E5002417350729F3915011F09A01E1CFA5
:1036800084E0089582E0089583E0089581E008953C
:1036900080E008954091E80042FFDDCF0895EF9269
:1036A000FF920F931F93CF93DF937C018B010E94B6
:1036B0001C1B811119C0E70101151105A1F08091B2
:1036C000E80085FD0AC08091E8008E778093E800CD
:1036D0000E941C1B882381F307C089918093F1000D
:1036E00001501109E9CF80E0CDB7DEB7E6E00C94D8
:1036F0005D35CF932091DB012430F9F4C091E900CE
:10370000CF703091EC00232F217030FD20E8C22BC8
:1037100022E02093E9002091E80020FF0BC040E068
:1037200050E060E270E00E944F1B8091E8008E77CD
:103730008093E800CF70C093E900CF91089580E0B6
:1037400090E00E948A2280E090E00E947422109211
:10375000D5020E94B32A0895CF92DF92FF920F9371
:103760001F93CF93DF936C010091DC0180919E0346
:10377000082BC7E0D0E010E0C8010C2E02C09595E0
:1037800087950A94E2F780FD04C02197A8F7F12CF1
:1037900009C0FC2EB6018C2F0E942F260E94F7270D
:1037A000019799F38F2DDF91CF911F910F91FF908A
:1037B000DF90CF900895CF93DF93EC010E94AC1B74
:1037C000BE010E942F260E94F727DF91CF91089516
:1037D000292F953078F58C3068F590E03CE0239FF8
:1037E000800D911D1124682F677023E096958795B1
:1037F0002A95E1F7FC01EE0FFF1FE80FF91FE352D6
:10380000FE4F40E050E080E0219130E0062E02C003
:10381000369527950A94E2F721703327042E01C0CC
:10382000220F0A94EAF7822B4F5F5F4F4330510516
:1038300059F7089580E00895292F953088F58C3048
:1038400078F590E03CE0239F800D911D1124282FF6
:10385000277051E001C0550F2A95EAF723E09695AD
:1038600087952A95E1F7FC01EE0FFF1FE80FF91F7E
:10387000E352FE4F20E030E070E04081CB01022EA9
:1038800002C0969587950A94E2F781708195842706
:103890008523842781932F5F3F4F2330310569F7BC
:1038A00008950E94FF328093DC010E949F1B0895BF
:1038B00021E030E001C0220F8A95EAF7209580913F
:1038C000DC0182230E94511C089521E030E001C0F8
:1038D000220F8A95EAF78091DC01822B0E94511C0D
:1038E000089580939E030E949F1B089592959F7058
:1038F000963079F010F4925001C09A50923068F4EA
:10390000803F69F018F4883E40F409C0843F29F4F0
:1039100006C0883E20F0813F11F080E0089581E0EC
:103920000895FC0186819781009719F00E94F7277E
:1039300004C0808191810E94DB1B0E94761C089547
:103940001092FD0186E0E0E4F3E0DF011D928A952C
:10395000E9F70E949F1B0895882321F00E94352AD1
:103960000E94B32A0895882339F09091D502892BBB
:103970008093D5020E94B32A0895882321F00E94E3
:103980003C2A0E94B32A0895882321F00E94432AEA
:103990000E94B32A0895882381F19CEF980F913AF1
:1039A00060F4EEE3F3E09281891301C01282319654
:1039B00093E0E434F907B9F70DC090E2980F98301E
:1039C00060F4877091E001C0990F8A95EAF7892F1A
:1039D0000E943C2A0E94B32A08959BE5980F9330D9
:1039E00028F480E090E00E948A220895885A873166
:1039F00020F480E090E00E9474220895CF93882301
:103A000009F44BC0C82F8CEF8C0F813AF0F4E0E43E
:103A1000F3E086E493E02191C21721F08E179F070F
:103A2000D1F70DC0EEE3F3E08281C81301C012822A
:103A3000319683E0E434F807B9F70E94B32A6C2F7B
:103A40008EE393E00E945A220CC080E28C0F8830F3
:103A500058F4C77081E001C0880FCA95EAF70E9448
:103A6000432A0E94B32A19C0EBE5EC0FE33040F47F
:103A7000F0E0EA5BFE4F808190E00E948A220DC058
:103A8000C85AC73150F4EC2FF0E0EE0FFF1FE75B90
:103A9000FE4F808191810E947422CF9108951F93DF
:103AA000CF93DF93182F893329F4C091CE02D091A0
:103AB000CF0204C0C091CC02D091CD02812F0E94D0
:103AC000FE1C209741F08FE99FE00197F1F700C0BD
:103AD00000002197F6CF812F0E94CB1CDF91CF9160
:103AE0001F910895A5E1B0E0E8E7FDE10C943535BC
:103AF0008C0185E0F801DE01519601900D928A95C6
:103B0000E1F7D8014C9011965C9011971296EC90C9
:103B100012971396CD90DC90149760E086E493E0C2
:103B20000E94673086E4A82E83E0B82E8090490377
:103B300090904A03A40160914703809146030E943C
:103B40007F23F82E8111E5C130904803F601E81972
:103B5000F9094F0160E0332009F469C1C5010E94F1
:103B600067306090C6027090C70220904B038614A5
:103B7000970408F014C14091490350914A03B09052
:103B80004603A0904703822D807F6A2D09F097C0DD
:103B90008B2D0E947F23811124C0D80111968C9116
:103BA00011978A111EC08C918B111BC020914C0360
:103BB00030914D0316968D919C91179728173907D0
:103BC00081F4E1100EC0822D8F70806180934B03D1
:103BD00086E493E00E94300580914B03F8018583D1
:103BE000B4C1F4EF6F16F1E07F0620F48091CB02B0
:103BF00080FF21C0A601652D842D0E947F238111A5
:103C000003C081E08E2502C080E090E080FF13C0F9
:103C10004E2D652D842D0E94FE2A882361F086E4B6
:103C200093E00E943005E6E4F3E088E0DF011D92B6
:103C30008A95E9F78AC1A601652D842D0E947F230C
:103C4000811103C081E08E2502C080E090E0B82F92
:103C5000B170CB2E80FF2AC04E2D652D842D0E9481
:103C6000FE2AD82E811122C0498A5A8A89899A89C6
:103C70000E94DB1B292F22952F70223018F0243050
:103C800078F405C09F7049F0811107C00DC09F7086
:103C900021F0F8019581907F39F0805E883020F026
:103CA000C8010E943005DC2CFD2C4FC1EE2009F428
:103CB0004BC180914B03816080934B0346C18B2D98
:103CC0000E947F23811124C0D80111968C911197F5
:103CD0008A111EC08C918B111BC020914C03309116
:103CE0004D0316968D919C9117972817390781F4EB
:103CF000E1100EC015962C92C8010E94300588E094
:103D0000F801A6E4B3E001900D928A95E1F76FC047
:103D1000C8010E94911C8823E1F1EE20D1F120918D
:103D20004B03822F82958F7090E00297A4F08091D0
:103D30004603909147039A8789871B86DD86CC8648
:103D40002E8780914C0390914D03988B8F87CE01E5
:103D500009960E94300588E0F801A6E4B3E00190DE
:103D60000D928A95E1F70E94282B16C0F090460329
:103D7000909047034091490350914A03692D8F2D3C
:103D80000E947F23882399F0C8010E94911C811111
:103D900030C0C8010E943005FF24F394D6C0822DA4
:103DA000807F21F786E493E00E943005ACC0D80103
:103DB00011968C9111978911E7CF8C918F11E4CFD7
:103DC00020914C0330914D0316968D919C9117973D
:103DD00028173907C9F6E110D7CF15962C92C801DC
:103DE0000E94300588E0F50111928A95E9F7F32CDD
:103DF000ACC0EE2071F220914B03822F82958F7020
:103E000090E002970CF4A7CF80914603909147036E
:103E10009A8389831B82DD82CC822E8380914C031E
:103E200090914D0398878F83CE01019692CF86E4BF
:103E300093E00E9467308091C6029091C702881675
:103E4000990608F060C0FE2CEE2009F4A2CFE090A5
:103E50004603D09047034091490350914A036D2D8A
:103E60008E2D0E947F23811140C0D80111968C9124
:103E700011978D113AC08C918E1137C020914C034F
:103E800030914D0316968D919C91179728173907FD
:103E900061F58091CB0282FD1FC080914B0380FDB4
:103EA0001BC082958F70482F50E041155105A1F03D
:103EB00020914B0315962C9315974F30510549F0DF
:103EC0008F5F982F9295907F822F8F70892B1596F8
:103ED0008C93C8010E94300588E0F801A6E4B3E0A5
:103EE00001900D928A95E1F730C0C8010E94911CA3
:103EF000811131CF80914B03816080934B03C801C6
:103F00000E94300522C088E0F50111928A95E9F7F8
:103F10001CC0EE2009F43DCFC8010E94911CF82E70
:103F2000882309F436CF88E0F801A6E4B3E00190D5
:103F30000D928A95E1F780914603909147030E9484
:103F4000DB1B0E94282B01C0F12C8F2D6596E2E12E
:103F50000C945135A0E1B0E0E0EBFFE10C94413569
:103F600029873A874B875C876D877E878F87988BF9
:103F7000CE0109960E94721D81114AC088E0FE019F
:103F80003996DE01119601900D928A95E1F7E98448
:103F9000FA840C851D85A8016F2D8E2D0E947F232C
:103FA000811136C0A0914E03B0E0CD01019687701B
:103FB000992720918F0330E08217930781F1E982DE
:103FC000FA821D830C8393E0AA0FBB1F9A95E1F739
:103FD000A15BBC4F98E0FE01319601900D929A953D
:103FE000E1F780934E030E941E2B12C028E0829FAF
:103FF000C0011124815B9C4F0E94721D8823E1F057
:1040000080918F0390E001968770992780938F03AA
:1040100080918F0390914E038913E8CF0DC00E94C9
:10402000A01C10924E0310928F03E6E4F3E088E0A8
:10403000DF011D928A95E9F76096E6E00C945D3504
:1040400008958091C7010895A0E0B0E0EAE2F0E2AF
:104050000C943D354430510508F46CC04091FB018F
:1040600041FBCC24C0F8D12CCC0CDD1C42FB8827B2
:1040700080F9C82FE0E0DE2FCC0FDD1FCC0FDD1F55
:10408000CC2ADD2A40FBEE24E0F8F12CEC28FD28B8
:1040900043FBAA27A0F9B0E023E0AA0FBB1F2A9593
:1040A000E1F7EA2AFB2A44FBEE27E0F9F0E034E0EE
:1040B000EE0FFF1F3A95E1F7EE29FF2945FB222776
:1040C00020F930E055E0220F331F5A95E1F72E2BEF
:1040D0003F2B46FB882780F990E0E6E0880F991F88
:1040E000EA95E1F7822B932B47FB442740F950E0F8
:1040F0005695542F442757954795842B952B2091FF
:10410000FC01322F3170132F00E0082B192B26955C
:104110002170B22EBB0CA12C0A291B29012E000CE8
:10412000220B330BFB01008311832283338380E056
:1041300090E002C08FEF9FEFCDB7DEB7EAE00C94BE
:1041400059358091AE029091AF0290931001809307
:104150000F010895CF93DF9321E02093E9002FEF23
:104160003091E800215035FD06C035ED3A95F1F764
:1041700000002111F5CF2091E80025FF14C0EC01CB
:1041800040E050E068E070E00E944F1B8091E80042
:104190008E778093E80088E0FE01A8ECB1E0019002
:1041A0000D928A95E1F7DF91CF910895CF92DF923A
:1041B000EF92FF924430510508F46FC0FB01C080BC
:1041C000D180E280F3800E94A01C8091FB01C0FAA4
:1041D00080F9B701A601769567955795479540FBFD
:1041E00081F9B701A60122E0769567955795479525
:1041F0002A95D1F740FB82F9B701A60133E0769505
:104200006795579547953A95D1F740FB83F9B701E4
:10421000A601E4E07695679557954795EA95D1F71D
:1042200040FB84F9B701A601F5E0769567955795AF
:104230004795FA95D1F740FB85F9B701A601A6E0AD
:104240007695679557954795AA95D1F740FB86F9DE
:10425000B701A601B7E07695679557954795BA954A
:10426000D1F740FB87F98093FB018091FC01D0FAE4
:1042700080F999E0F694E794D794C7949A95D1F78A
:10428000C0FA81F98093FC018091FB019091FC01BF
:104290000E94802980E090E002C08FEF9FEFFF90A6
:1042A000EF90DF90CF9008959C01CA01F9013296FA
:1042B000459154918417950750F0CB01F90134963C
:1042C000659174910E94863580E090E008958FEFAB
:1042D0009FEF08950F931F93CF93DF930EEA12E0A1
:1042E000C7E0D2E0CE010E94C434F80161918F0191
:1042F000681719F0CE010E94D8342196CB32F2E033
:10430000DF0781F7DF91CF911F910F910895DA01B7
:104310009C012E5F3F4FF90145915491F901259180
:104320003491A217B30758F0FC013496859194910B
:104330000E9486350E946A2180E090E008958FEF08
:104340009FEF089580933B0370933D0360933C037C
:104350008091DB018430F9F48093E9008FEF909134
:10436000E800815095FD06C095ED9A95F1F70000A3
:104370008111F5CF8091E80085FF0DC040E050E04D
:1043800063E070E08BE393E00E944F1B8091E800B4
:104390008E778093E800089581E08093E00080E2CA
:1043A0008093D8001092C9008FE19EE40197F1F745
:1043B00000C0000087E090EBDC018093090490933B
:1043C0000A04A0930B04B0930C049CE088E10FB6A0
:1043D000F894A895809360000FBE90936000FFCF83
:1043E00078941F920F920FB60F9211248F939F9380
:1043F000AF93BF938091370390913803A091390315
:10440000B0913A030196A11DB11D8093370390939B
:104410003803A0933903B0933A03BF91AF919F91B2
:104420008F910F900FBE0F901F9018959C014FB762
:10443000F8948091370390913803A0913903B0919B
:104440003A034FBF821B930B08952FB7F8948091C6
:10445000370390913803A0913903B0913A032FBFED
:1044600008951F920F920FB60F9211248F939F936E
:10447000AF93BF9380913603811113C080913703AE
:1044800090913803A0913903B0913A034196A11D50
:10449000B11D8093370390933803A0933903B093F1
:1044A0003A03BF91AF919F918F910F900FBE0F90E4
:1044B0001F9018959C01FC0132969FEF80E041917E
:1044C000461789F09F3F19F4411101C0982F8F5F63
:1044D0008630A9F79F3F39F0F901E90FF11D97FDEB
:1044E000FA9562830895089520913403309135033D
:1044F0002817390771F09093350380933403E091C6
:104500003203F0913303309721F00084F185E02DE0
:104510000995089520913003309131032817390708
:1045200071F09093310380933003E0913203F09166
:104530003303309721F00680F781E02D0995089527
:10454000E0913203F0913303309729F00190F0812C
:10455000E02D0995089580E00895EF92FF920F9362
:104560001F93CF93DF93FC012285211136C0EC010C
:10457000E380F480F7E5FF1A26E12E9DC0012F9D10
:10458000900D1124DC01A852BD4F1496ED91FC91C1
:10459000159782529D4F309729F054966D917C91DA
:1045A0005597099586E18E9D80018F9D100D1124F0
:1045B00008521D4FF80187810E943C2AF80180852E
:1045C0000E94352A0E94B32A188219861B861E82F1
:1045D0001D821092D7021092D602CDB7DEB7E6E068
:1045E0000C945D35CF93DF93FC012189211117C015
:1045F000EC0181E0818B87810E94432A9091D50252
:104600008885892B8093D5020E94B32AEA81FB8199
:10461000CE010696309719F06C897D890995DF9156
:10462000CF9108950F931F93CF93DF93C42FD22F71
:10463000FC0182818823B1F04093D4020E9425229C
:104640009093D3028093D20280E28C0F883008F0DE
:1046500051C0C77081E001C0880FCA95EAF70E9477
:10466000C41C48C08091D402481334C08091D20247
:104670009091D3020E9416222091C6023091C70267
:104680008217930738F510E21D0FCD17B9F080E2BD
:104690008C0F883040F4C77081E001C0880FCA9544
:1046A000EAF70E94BD1C183010F581E09D2F97702D
:1046B00001C0880F9A95EAF70E94C41C802F0E94BF
:1046C0004F1D1830B8F4D77081E001C0880FDA951B
:1046D000EAF70AC080E28C0F883060F4C77081E08E
:1046E00001C0880FCA95EAF70E94BD1C03C0802F45
:1046F0000E944F1DDF91CF911F910F910895452B7F
:1047000041F06F3F41F491E08F3F09F090E0892F35
:1047100003C081E001C080E081700895BC01409138
:10472000AA028091AB02942F981729F1292F30E02B
:10473000F901EE0FFF1FEE55FD4F0190F081E02DC6
:10474000E617F70799F487E0869FF001879FF00D41
:104750001124EA57FD4F81E0848394130CC02F5F2E
:104760003F4F237033272093AA0208952F5F3F4FB6
:10477000922F9370D9CF0895EF92FF920F931F93CA
:10478000CF93DF9380912502882309F440C00091E4
:1047900024028CE0F82E809125020817A0F5EE2463
:1047A000E394E00EE092240210E0F09EE001F19E1E
:1047B000D00D1124CA5DDD4F4B815C8169818881F8
:1047C0000E947F2381111DC08E819F81892B21F43E
:1047D00088859985019651F4288139814A815B81C8
:1047E0006C817D818E819F810E94AA1FF09EF001C5
:1047F000F19EF00D1124EA5DFD4F14821382109298
:10480000D5020E2DC8CF1092250210922402CDB7EA
:10481000DEB7E6E00C945D3510922302109222027E
:10482000E6E8F2E08581811102C014821682379693
:1048300082E0E23AF807B1F708951092AD021092C3
:10484000AC02109212018091AB028093AA020E94E6
:104850000C240E94BC230895A0E0B0E0E2E3F4E25F
:104860000C943635C091AA0297E0892E01E010E041
:104870002CE0322E3EEF932E442443948091AB02E1
:10488000C81709F479C0D0E0FE01EE0FFF1FEE5506
:10489000FD4F80819181889ED001899EB00D1124A9
:1048A000AA57BD4F14962C911497211162C05090B5
:1048B0002502E6E2F2E020E030E0712C5D012515F2
:1048C00008F055C0E284F384D501CD90DC906FEF01
:1048D0007FEF612C462D50E0DA01AA0FBB1FAC0D13
:1048E000BD1D0D90BC91A02D109731F0EA16FB066E
:1048F00009F4BA016394EECF6F3FBFEF7B0799F1E4
:10490000D80102C0AA0FBB1F6A95E2F77A2AB80144
:10491000062C02C0660F771F0A94E2F7AB014150E4
:104920005109672D70E046175707D9F4329EF00100
:10493000339EF00D1124EA5DFD4F889ED001899EC3
:10494000B00D1124AA57BD4F12962D913C9113978B
:1049500037832683908291829187808715964C9227
:1049600006C0148213822F5F3F4F3C96A8CF0E944F
:104970008E232196C37082CF0E94BC230E940C24F8
:10498000CDB7DEB7E1E10C94523580911101877FFC
:104990008093110182E00E94352A8091110184FFE9
:1049A00006C08F7E8093110182E00E94432A80918D
:1049B000110185FF06C08F7D8093110180E20E9466
:1049C000432A0E94B32A0895662329F02091D50234
:1049D00022602093D5029C013056211540E2340715
:1049E00020F0305E2115304108F499270E94E5320D
:1049F0000895009741F0EFE9FFE03197F1F700C02B
:104A000000000197F6CF0895A0E0B0E0EAE0F5E2FB
:104A10000C943D355C017B01C42E8901809111010C
:104A200082FF8DC0C0912002D0912102CA15DB0502
:104A300021F0A114B10409F082C0809111018B7F93
:104A40008093110181FD11C080911E0290911F027F
:104A5000A701481B590B81E020910F0130911001F3
:104A60004217530718F480E001C081E08170D82E0E
:104A700080911101D0FA81F980931101FE01FF2785
:104A800084E0F695E7958A95E1F79E012F7033272C
:104A9000EE0FFF1FE250FE4F81E090E002C0880F52
:104AA000991F2A95E2F7DD2029F020813181822BA0
:104AB000932B06C08095909520813181822393238A
:104AC000918380838091FD0181FF08C08091110155
:104AD00080618093110182E00E943C2A8091FD0157
:104AE00085FF08C08091110180628093110180E2EE
:104AF0000E943C2AA8016D2DCE010E94E424CC2006
:104B000031F08091C90285FF02C086FF36C08091D6
:104B1000CC029091CD020E94F924809120029091C4
:104B200021029C013056211540E2340720F0305E0E
:104B30002115304108F499270E94CB3218C0950105
:104B40003327C5019056811540E2940720F0905E0E
:104B50008115904110F4C90101C0C5010E94CB32FA
:104B60008091200290912102A816B90611F40E94AA
:104B7000C524F0921F02E0921E02CDB7DEB7EAE034
:104B80000C9459350F931F93CF93DF930EEA12E0E5
:104B9000C7E0D2E0CE010E94C434F80181938F01B6
:104BA0002196CB32F2E0DF07A9F7C0E0D0E0FE01AA
:104BB000EF54F94F85919491009711F0FC010995FC
:104BC0002C96C039D10599F7DF91CF911F910F91A4
:104BD0000895EEEAF2E0128E138E8FEA90E0918350
:104BE000808385E0848F28E833E13383228322E3C6
:104BF00030E0378B268B28EC30E0318F208F158EFC
:104C00002AE030E0378F268F20E530E031A320A363
:104C100082A30E946A210E94A01C1092FC011092A3
:104C2000FB01ECEFF1E08081846080838091FB01E7
:104C30009091FC010E9480290E94C2250895CF9383
:104C4000DF93CBE7D2E060E0CE010E94D83421961A
:104C5000C11584E0D807B9F7DF91CF91089520916D
:104C6000F9013091FA01232BA1F4703F39F4603F30
:104C700081F48091F7019091F8010895843048F40F
:104C8000753038F46C3028F4462F672F0E94DA2BE9
:104C9000089580E090E00895A4E1B0E0E2E5F6E256
:104CA0000C943935A090F501B090F60181E090E0C8
:104CB0009093F6018093F501612CC12CD12C712CBD
:104CC000E12CF12C00E010E046018E0C9F1CF80155
:104CD000EE0FFF1FE80DF91DE953FB4F25913491AD
:104CE000402F672D862D0E94B32B0F5F1F4F0C3076
:104CF000110569F788E1E80EF11C7394E5E07E1276
:104D0000E1CFF8E7CF0ED11C639484E06812D7CFCF
:104D10000E94E9251A8219821C821B821E821D8232
:104D200018861F8288EC90E09A8789870BE212E050
:104D30004AE050E0B801CE0101960E94FC34065FC3
:104D40001F4F0335E2E01E0799F77E01FBE0EF0EEF
:104D5000F11C8AE0F70111928A95E9F74AE050E0E8
:104D6000B801C7010E94FC34065F1F4F0B37F2E009
:104D70001F07A1F7B092F601A092F5016496EEE04C
:104D80000C945535843080F49B01982F8AE0989FCD
:104D9000B0011124655D7D4F4AE050E0C9010E94D9
:104DA000B43480E090E008958FEF9FEF089580E0A5
:104DB00008959091FB0192FF0DC0282F2871283093
:104DC00019F4877F846006C0282F2471243011F4E1
:104DD0008B7F886093FF0DC0282F2871283119F42C
:104DE000877E846106C0282F2471243111F48B7EC4
:104DF00088612091FC0120FF0DC0382F38713830B8
:104E000019F4877F816006C0382F3171313011F479
:104E10008E7F886021FF0DC0282F2871283119F45A
:104E2000877E816106C0282F2171213111F48E7E89
:104E3000886194FD877E0895F894E82FE295EF70DD
:104E4000F0E031A1282F2F7081E090E001C0880FA1
:104E50002A95EAF7982F9095932391A392A1892BF5
:104E600082A378940895AAE0B0E0E9E3F7E20C9415
:104E70003B35AE014F5F5F4F7A018AE0FA01119234
:104E80008A95E9F706E211E06A01AA24A394B12CFD
:104E9000F80180818F3F09F447C0F894E82FE2952C
:104EA000EF70F0E021A18F70A50102C0440F551FE3
:104EB0008A95E2F7CA01922F982B91A392A180952F
:104EC000892382A3789400C0EBE2F1E021E030E096
:104ED000812C912C41914F3F89F0A42FA295AF7066
:104EE000B0E090968C9190E04F7002C095958795B8
:104EF0004A95E2F780FD02C0C90102C080E090E05F
:104F0000882A992A220F331F51E0E733F50711F75A
:104F1000F80180818F3F11F00E941C27F0EAFA957A
:104F2000F1F7F601918280820F5F1F4FF2E0CF0E02
:104F3000D11C41E00B32140709F0AACF4AE050E03F
:104F4000B70186E991E00E94793511E0009709F4F4
:104F500010E0892B89F08AE0F701A6E9B1E0019021
:104F60000D928A95E1F781E08093A1030E942522AA
:104F70009093A00380939F038091A103882391F1D4
:104F800080919F039091A0030E941622059750F1F3
:104F900080919601909197019093BC018093BB0101
:104FA00080919801909199019093BE018093BD01E9
:104FB00080919A0190919B019093C0018093BF01D1
:104FC00080919C0190919D019093C2018093C101B9
:104FD00080919E0190919F019093C4018093C301A1
:104FE0001092A103812F2A96ECE00C945735CF93B1
:104FF000DF938238910569F1B0F48133910509F4AA
:105000006FC048F48932910509F465C08A32910570
:1050100009F46BC08AC08533910509F457C0893300
:105020009105B9F082C0833E910571F138F4803E5C
:105030009105B1F0823E910511F177C0863E910550
:10504000B9F1873E9105C9F1843E910509F06DC023
:1050500024C02091FB0120FD53C021FD51C065C03B
:105060008091FB0180FD46C08091FC0180FF48C01B
:105070008091FB0184FD3FC183EE90E03EC18091B1
:10508000FB0182FF3AC0F4CF8091FB0182FD35C065
:105090008091FC0180FD34C0EBCF8091FC0181FF49
:1050A00035C08091FB0184FD26C187EE90E025C1CB
:1050B0008091FB0183FF27C0F4CF8091FB0183FD2A
:1050C00022C08091FC0181FD21C0EBCF8091FB01CA
:1050D00085FD1FC021C08091FB0185FD1DC019C049
:1050E0008091FB0186FD1BC01DC08091FB0186FDE8
:1050F00019C015C089E390E000C182EE90E0FDC0C8
:1051000080EE90E0FAC086EE90E0F7C084EE90E08A
:10511000F4C089E290E0F1C085E390E0EEC08AE25D
:1051200090E0EBC081E390E0E8C0811532E59307A1
:1051300008F069C0811541E5940728F0982F882769
:10514000816F906ADAC0883E910568F5803E9105CE
:1051500008F0D3C0883A9105B8F4853A910548F033
:10516000855AE82FF0E0EA5BFE4F808190E0906482
:10517000C4C08130910509F4BBC008F4BCC08430C0
:10518000910508F4B8C0B9C08F3B910508F0B3C0D1
:10519000885AE82FF0E0EE0FFF1FE75BFE4F80819B
:1051A00091819464AAC0811520E59207F0F09C01DA
:1051B00074E0369527957A95E1F7922F9370482FF2
:1051C000437021E030E002C0220F331F4A95E2F71E
:1051D0003C68392B8F70982F9695969540E2949F56
:1051E000C0011124822B932B88C0811530E49307D2
:1051F00018F09F70906A81C09C013A9521153F413B
:1052000008F47BC078C0EC01C11586E5D807E8F545
:10521000C11525E5D20748F08C2F0E94D9268F7141
:1052200090E0982F8827906268C0C11534E5D307B5
:1052300028F09C2F8827846F906A5FC0AE0143706E
:1052400055272C2F26952695C115D34578F481E056
:1052500090E002C0880F991F4A95E2F740E2249F30
:1052600090011124822B932B9C6847C081E090E031
:1052700002C0880F991F4A95E2F740E2249F9001EF
:105280001124822B932B9A6838C0C1152AE5D207C6
:10529000F8F4C11539E5D30790F08C2F8F700E9478
:1052A000D92694E0D695C7959A95E1F7CF70D0E0CE
:1052B000DC2FCC27D0699E01282BC9011EC0C11547
:1052C00048E5D407C0F09C2F8827806F906A15C0EE
:1052D000CE0190568115904270F48D2F8F710E94EF
:1052E000D926282F2F71CE0199279062922B05C0C5
:1052F00081E090E002C080E090E0DF91CF910895DE
:10530000CF93C92F682F84E090E00E94D8346C2F8F
:1053100082E290E00E94D834CF910895CF9384E048
:1053200090E00E94C434C82F82E290E00E94C4340E
:105330002C2F30E0A901582BCA01CF91089580E0AD
:1053400090E00E94D234883E9E4F19F40E941D2E98
:10535000089580E0089568EE7EEF80E090E00E947E
:10536000F63460E082E090E00E94D83460E083E0B0
:1053700090E00E94D83410929E0360E084E090E0B8
:105380000E94D83464E082E290E00E94D83460E069
:1053900085E090E00E94D83460E086E090E00E94D2
:1053A000D8346FEF87E090E00E94D83440E050E0BE
:1053B000BA0188E090E00E94EA3460E08DE090E07D
:1053C0000E94D83440E050E0BA0188E190E00E94A9
:1053D000EA3460E087E190E00E94D83440E050E099
:1053E000BA018CE190E00E94EA3460E070E080E273
:1053F00090E00E94F63440E050E0BA0188E190E08D
:105400000E94EA3480E00E94EE2D0E940D2E40E0C2
:1054100050E0BA018FE090E00E94EA3440E050E0B2
:10542000BA0183E190E00E94EA34089580919D03DF
:10543000882331F010929D0310929C0310929B03DD
:105440000895CF939091FC0192FF0DC090919D0320
:10545000981749F0C82F0E94252290939C038093AF
:105460009B03C0939D03CF91089580959091D502A1
:1054700089238093D502089580959091FD01892319
:105480008093FD0108959091FD01892B8093FD018A
:105490000895109292031092910310929003089530
:1054A000209192038095822380939203982F977086
:1054B00099F430E0482F082E000C550B24173507BF
:1054C00059F09091FC0192FF07C0859585958595CF
:1054D0000E94581C0E94492A08959091FC0192FB59
:1054E000222720F9281769F080FB92F99093FC019C
:1054F0008091FB019091FC010E94802982E00E9432
:10550000502A08959091FC0192FF10C098E0899F65
:1055100090011124262B209392030E94651C0E9467
:105520002522909391038093900308950E94651C17
:1055300008958091B0029091B102892B89F00E9468
:10554000252220919B0330919C03AC01421B530BFD
:1055500081E02091B0023091B1024217530708F464
:1055600080E0817008959091FD018091D502892B92
:1055700080933E0380919D03882301F18091B002C6
:105580009091B102892B29F00E94992A81110E94E1
:10559000162A90913E0380919D03892B80933E03B0
:1055A000E0E4F3E097E080E0915029F0219122239C
:1055B000D9F38F5FF9CF81110E94162A48E050E09D
:1055C00063E973E08EE393E00E947935892BA9F0BB
:1055D00088E0EEE3F3E0A3E9B3E001900D928A9551
:1055E000E1F7E0913203F0913303309731F002801C
:1055F000F381E02D8EE393E00995089520918F03C8
:1056000090914E032917B1F030E0F90153E0EE0F0D
:10561000FF1F5A95E1F7E15BFC4F5181561306C01D
:105620005081581303C05281541306C02F5F3F4F5F
:105630002770E8CF80E0089581E0089580918F037E
:1056400090914E03891719F08F5F8770FBCF0895F3
:10565000A0E0B0E0EEE2FBE20C943F3580914B031A
:1056600082958F7009F055C080914803882309F412
:1056700050C0C0918F0380914E03C81709F449C0F0
:10568000F0904603E0904703C0904903D0904A034E
:10569000A6016E2D8F2D0E947F23D0E0811136C090
:1056A0008E0183E0000F111F8A95E1F7F801E15B9D
:1056B000FC4F81818E112AC080818F1127C0828189
:1056C000811124C0E380F480EC18FD0860E086E4DA
:1056D00093E00E9467308091C6029091C702E8165D
:1056E000F906A0F480914B038F70806180934B0387
:1056F000F801EC5AFC4F80818F708061808386E4D2
:1057000093E00E9430050E941E2B03C02196C770B3
:10571000B2CFCDB7DEB7E8E00C945B350895CF93F8
:10572000DF93EC01EEECF3E0438162818C810E9417
:1057300093348C818F5F8C83DF91CF910895CF93C9
:10574000DF93EC01EC81F0E0E45CF84F4491EEEC87
:10575000F3E0628181810E9493348C818F5F8C831E
:10576000DF91CF9108951F93CF93DF93962F8430CD
:10577000E8F46530D8F44C30C8F4632F122FC42FEE
:10578000D0E0CC0FDD1F28E1929FC00DD11D112468
:1057900098E7899FC00DD11D1124CE0187960E94E4
:1057A000D834612FCE0188960E94D834DF91CF91F2
:1057B0001F9108950F931F93CF93DF93843008F5C3
:1057C0006530F8F44C30E8F4C42FD0E0CC0FDD1F86
:1057D00028E1629FC00DD11D112438E7839FC00DC1
:1057E000D11D1124CE0187960E94C43490E0182F59
:1057F0000027CE0188960E94C4349801282BC90145
:1058000002C080E090E0DF91CF911F910F91089549
:10581000AAE0B0E0EEE0FCE20C943F3588E2E1EE75
:10582000F3E0DF011D928A95E9F78CE1E6E8F2E00A
:10583000DF011D928A95E9F781EEC82E83E0D82E0C
:105840007F0103E512E0F701D182C0824AE050E017
:10585000B801CE0101960E94B43488E0FE01319671
:10586000D60101900D928A95E1F789859A85D70135
:1058700013969C938E931297BAE0CB0ED11CE7E05F
:10588000EE0EF11C065F1F4F0B37F2E01F07D9F633
:105890002A96E8E00C945B35AAE0B0E0E2E5FCE291
:1058A0000C943B3508ED12E0E12CF12C86E3C82E78
:1058B0008DE2D82E9DE5A92E9DE2B92E2AEA822EF0
:1058C0002CE2922EF801D182C082B382A28295820C
:1058D0008482F58AE48ABE016F5F7F4F8E2D0E941D
:1058E000C226892B29F489859A85F801938B828BAE
:1058F000FFEFEF1AFF0A0A5E1F4F84E0E816F1047B
:1059000009F72A96ECE00C945735A5E0B0E0EBE8F7
:10591000FCE20C9445359093F8018093F7018115D2
:1059200020E2920718F40E94CB3210C080EF8983E6
:105930008A831B820E9425228160782F9D838C831D
:1059400049815A816B818D810E9475302596E2E0F4
:105950000C9461350F931F93CF93DF938C01EB0170
:1059600067ED73E08C2F0E94C226892B09F042C09C
:105970008091CC029091CD020E94F924DD27CD5276
:10598000DC4F8881F80110821882833079F048F466
:10599000813041F1823071F58091D9039091DA0321
:1059A00009C0843051F08530E9F024C08091DB03D8
:1059B0009091DC030097B1F01BC08091DD039091C2
:1059C000DE030097A9F42091D7033091D80380918A
:1059D000D9039091DA032115310541F0009741F484
:1059E000C90106C08091D7039091D803009711F0A8
:1059F0000E94852CDF91CF911F910F910895A5E012
:105A0000B0E0E5E0FDE20C9445359093F801809319
:105A1000F701811520E2920718F40E94E53211C0C7
:105A200080EF89838A8381E08B830E9425228160B5
:105A3000782F9D838C8349815A816B818D810E944F
:105A400075302596E2E00C946135CF93DF93EC013D
:105A50000E94FF2C8091CC029091CD020E94F924EB
:105A6000CE010E94852CDF91CF9108950F931F9353
:105A7000CF93DF938C01862F67ED73E00E94C226DF
:105A8000892BB1F4C091D703D091D803209781F02E
:105A9000F8018081833039F4CE010E94252DCE019A
:105AA0000E94252D02C0843018F0CE010E94252DC1
:105AB000DF91CF911F910F9108950F931F93CF9373
:105AC000DF938C01EB0167ED73E08C2F0E94C226FF
:105AD000892B09F069C0DD27F8018081813041F40C
